:02000004080AE8
:1000000000000A08402B0A0800000600060005014F
:0800100004029A080000000040
:0400180030280A087A
:10001C0009480A4908B5884205D0094A824202D0EB
:10002C00121A02F04DFB0748074A0021121A02F07F
:10003C0055FB064808BD00BF00000020A42A0A0892
:10004C00740000207400002081060020810600202E
:10005C0070B501F0CFFC0025054E064CA41BA4087E
:10006C00A54200D170BD56F8043B98470135F7E71F
:10007C00742A0A08942A0A0800F014B808B500F08B
:10008C0073F8BDE8084001F06DBC00F0AFBD00F0A6
:10009C00B5BD0078B0FA80F04009704701230370B9
:1000AC007047000038B501F07BFD00F001FE01F057
:1000BC0065FB4FF4164101F047FB01F05FFB204953
:1000CC0000F05BFF1F4800F062FA01F057FB1E497D
:1000DC0000F053FF01F052FB04461A4800F07EFA80
:1000EC001A4A1B491B4D002818BF1146204600F028
:1000FC0044FF0121072001F0F9FC002216481146AB
:10010C0001F06EF8154C00226868114600F026FDCF
:10011C0048B94FF4FA7000F089FD01F02FFB21462D
:10012C0000F018FFEFE701F029FB0D4900F025FF67
:10013C0001F024FBBDE838400A4900F01EBF00BFA7
:10014C007C280A088C00002098280A0844280A08F1
:10015C0062280A0894050020C400002096280A088A
:10016C0097280A08B6280A08F0B5354BA1B00293B7
:10017C00344B354C354D364E0193364B2A46314671
:10018C0000933548234600F0BDF9B6F9000001F0A4
:10019C008FFE0022314B01F0F5FE02F02DF9304FAD
:1001AC00304E3860B5F9000001F082FE00222B4B76
:1001BC0001F0E8FE02F020F93060B4F9000001F023
:1001CC0077FE0022254B01F0DDFE02F015F9264DDD
:1001DC0028600A2001F0B4FC0446244B072019784F
:1001EC0081F00101197001F092FC21490BA800F07B
:1001FC0005FA39680BA800F042FA31680BA800F038
:10020C003EFA29680BA800F03AFA204602F0FEF9F3
:10021C0001460BA800F033FA164D174B06AC0593AC
:10022C000FCD0FC42B6815492370154B05AA1B68FD
:10023C000BA800F04DFA0BA800F004FA21B0F0BDA9
:10024C00A8000020A6000020A00000209E00002096
:10025C009C000020A40000208C0000200000103F17
:10026C0074000020780000207C000020A2000020F8
:10027C00C5280A08B0000020FC280A08C400002089
:10028C000000002007B50021012000F02BFC00220B
:10029C000D4B01201A609A809A71A2F580329A60F7
:1002AC0000F010FC094801F0E5F86A23A82200933D
:1002BC00C0210123064800F08FFD064803B05DF80D
:1002CC0004EB00F005B900BF80000020C400002042
:1002DC00AC0000208C0000202DE9F74F16469B4601
:1002EC0007468A460025BDF8308000F09FFA202E84
:1002FC003346A8BF202381462C460193B5423AD2FF
:10030C0001F04EFC394600F005FD01F049FC036894
:10031C0051469B68984701F043FC00F003FD01F047
:10032C003FFC394600F0F6FC01F03AFC721B202A27
:10033C00A8BF20223946D2B200F0E9FC01F030FC13
:10034C0003681B69984790B1B8F1000F09D101F00F
:10035C0027FC03685B6998470BF80400013464B20E
:10036C00ECE700F063FAA0EB09004045EFD3019BEA
:10037C001D44EDB2C2E7B8F1000F09D000F056FAF7
:10038C00A0EB0909C14503D3B442B8BF4FF0FF3409
:10039C00204603B0BDE8F08F07B500931346012249
:1003AC00FFF79AFF03B05DF804FB37B514461D4602
:1003BC000DF10702BDF81C30FFF7EEFF58B1012319
:1003CC00621BAB4001329DF80710013B93400B4080
:1003DC001341069A137003B030BDF8B507461546A5
:1003EC001C460E4601F0DCFB394600F093FC01F094
:1003FC00D7FB036831469B6898472544AC4207D02D
:10040C0001F0CEFB036814F8011B9B689847F5E7D5
:10041C0001F0C6FB00F086FCB0FA80F04009F8BD94
:10042C0007B58DF807200DF107030122FFF7D5FF63
:10043C0003B05DF804FB00002DE9F3419046012464
:10044C001F460E4B0DF107021B8805460E46FFF7A3
:10045C00A3FF04FA08F252B29DF8074057B12243A9
:10046C00D2B2314628468DF80720FFF7D9FF02B0EB
:10047C00BDE8F08124EA0202F3E700BF040000208B
:10048C00F7B51F46114B16461B880DF107020446A3
:10049C000D46FFF781FFB8B101239DF82010F21B28
:1004AC00BB400132013B934001FA02F29DF8071068
:1004BC00D2B221EA0301134041EA03022046294645
:1004CC008DF80720FFF7ACFF03B0F0BD040000204F
:1004DC0068230370704707B502230422007800914B
:1004EC001B21FFF7CDFF03B05DF804FB07B502231A
:1004FC000422007800911C21FFF7C2FF03B05DF8C5
:10050C0004FB0000F7B51D46034604460F4616468D
:10051C00154A13F8010B12883B2100920E22FFF7AB
:10052C00DBFE6278A37843EA02233B80E2782379EE
:10053C0043EA022333806279A37943EA02232B80B6
:10054C00627AA37A43EA0223089A1380E27A237B25
:10055C0043EA0223099A1380627BA37B43EA0223BA
:10056C000A9A138003B0F0BD040000200B4606224B
:10057C006B210078FFF760BF07B5032302220078D8
:10058C0000916B21FFF77CFF03B05DF804FB10B505
:10059C0004460121FFF7F0FF20460021FFF79BFFE7
:1005AC0020460021FFF7A2FF2046BDE810400021A5
:1005BC00FFF7DCBF034613B5074A0446128813F84D
:1005CC00010B7521CDE9003206231A46FFF7EDFE2B
:1005DC00607802B010BD00BF0400002008B5FFF722
:1005EC00E9FFA0F134035842584108BD0023C0E98B
:1005FC00133303608362436070470000F8B5044610
:10060C000E460F4D0830294600F03DFD04F12C0735
:10061C00294604F1180000F036FD2946384600F052
:10062C0032FD294604F13C0000F02DFD2046FFF779
:10063C00DDFF3146384600F039FD2046F8BD00BFDD
:10064C0097280A0810B50446006800F0D7FAA06A8B
:10065C0000F0D4FAE06C00F0D1FA04F13C0000F0A8
:10066C00C8FC04F12C0000F0C4FC04F1180000F0EC
:10067C00C0FC04F1080000F0BCFC204610BD38B5ED
:10068C000D46016D04460431C06C00F0BFFAE06405
:10069C00E8B1236DC5F30762C254D4E91332134495
:1006AC00C5F307425A70D4E913321344C5F3072239
:1006BC009A70D4E913321344DD70236D04F13C00BD
:1006CC00043323656621BDE8384000F017BD38BD02
:1006DC002DE9F04F8BB0D0F82C9000AF80464846F7
:1006EC000D46C7E9023202F02DF8064603308008A9
:1006FC0001F0CEFB00223F4B01F08EFA01F054FECC
:10070C00D8F83CA0C6EB80068400504602F01AF8DC
:10071C000134834604440130800801F0B9FB002207
:10072C00344B01F079FA01F03FFECBF1030BD8F812
:10073C0050300BEB800B5C441C44E21D22F0070292
:10074C00ADEB020D0021224668463B6001F0C6FF6E
:10075C00484601F0F7FF49460246684601F0B0FFF3
:10076C00484601F0EFFF2C210DEB060211544846D0
:10077C0001F0E8FF7860504601F0E4FF796802462A
:10078C00013188196844514601F09AFF484601F03E
:10079C00D9FF8146504601F0D5FF484401303B68F3
:1007AC00304458441A46D8F84C10684401F088FF7D
:1007BC002B68FE68D3F838800F4B07F1140C043605
:1007CC003B610FCEACE80F0033683A898CF80030EF
:1007DC0007F110012846C0472B6822466946284677
:1007EC00DB6898472B6828461B6C98472C37BD460E
:1007FC00BDE8F08F0000E03FFC280A0808B5024B6A
:10080C001B685B6C019308BDD001060808B5024B50
:10081C001B689B6C019308BDD001060808B5024B00
:10082C001B685B68019308BD9C01060808B5024B68
:10083C001B685B69019308BD9C01060808B5024B57
:10084C001B685B68019308BDB001060808B5024B34
:10085C001B689B68019308BDB001060808B5024BE4
:10086C001B68DB68019308BDB001060808B5024B94
:10087C001B681B69019308BDB001060808B5024B43
:10088C001B681B6B019308BDB001060808B5024B31
:10089C001B68DB6C019308BDAC01060808B5024B64
:1008AC001B689B6D019308BDAC01060808B5024B93
:1008BC001B68DB6D019308BDAC01060808B5024B43
:1008CC001B681B6E019308BDAC01060808B5024BF2
:1008DC001B685B6E019308BDAC01060808B5024BA2
:1008EC001B689B6E019308BDAC01060808B5024B52
:1008FC001B68DB6E019308BDAC01060808B5024B02
:10090C001B681B6F019308BDAC01060808B5024BB0
:10091C001B685B6F019308BDAC01060808B5034B5F
:10092C001B68D3F88030019308BD0000AC010608A9
:10093C0008B5034B1B68D3F89030019308BD000039
:10094C00AC01060808B5024B1B685B68019308BD37
:10095C00BC01060808B5024B1B689B68019308BDD7
:10096C00BC01060808B5024B1B68DB69019308BD86
:10097C00BC01060808B5024B1B681B6A019308BD35
:10098C00BC01060808B5024B1B681B6B019308BD24
:10099C00BC01060808B5024B1B689B6C019308BD93
:1009AC00BC01060808B5024B1B68DB69019308BD46
:1009BC00B401060808B5024B1B681B6A019308BDFD
:1009CC00B401060808B5024B1B689B69019308BD6E
:1009DC00C401060808B5024B1B685B6A019308BD8D
:1009EC00C401060808B5024B1B689B6A019308BD3D
:1009FC00C401060808B5024B1B68DB6A019308BDED
:100A0C00C401060808B5024B1B681B6B019308BD9B
:100A1C00C401060808B5024B1B685B6B019308BD4B
:100A2C00C401060808B5024B1B689B6B019308BDFB
:100A3C00C401060808B5024B1B681B6C019308BD6A
:100A4C00C401060808B5024B1B681B68019308BD5E
:100A5C00D801060808B5024B1B685B68019308BDFA
:100A6C00D801060808B5024B1B681B69019308BD29
:100A7C00D801060808B5024B1B685B69019308BDD9
:100A8C00D801060808B5024B1B689B69019308BD89
:100A9C00D801060808B5024B1B68DB69019308BD39
:100AAC00D801060808B5024B1B681B6A019308BDE8
:100ABC00D801060808B5024B1B689B6C019308BD56
:100ACC00C001060808B5024B1B685B68019308BDA2
:100ADC00A401060808B5024B1B685B69019308BDAD
:100AEC00A401060808B5024B1B68DB6A019308BD1C
:100AFC00A401060808B5034B1B68D3F8903001938A
:100B0C0008BD0000A401060808B5034B1B68D3F808
:100B1C009C30019308BD0000A401060808B5024BE7
:100B2C001B68DB6B019308BDCC01060808B5024BB2
:100B3C001B685B68019308BDC801060808B5024B29
:100B4C001B689B68019308BDC801060808B5024BD9
:100B5C001B68DB68019308BDC801060808B5024B89
:100B6C001B681B69019308BDC801060808B5024B38
:100B7C001B685B69019308BDC801060808B5024BE8
:100B8C001B689B69019308BDC801060808B5024B98
:100B9C001B68DB69019308BDC801060808B5024B48
:100BAC001B681B6A019308BDC801060808B5024BF7
:100BBC001B681B6B019308BDC801060808B5024BE6
:100BCC001B685B6B019308BDC801060808B5024B96
:100BDC001B681B6C019308BDC801060808B5024BC5
:100BEC001B685B6C019308BDC801060808B5024B75
:100BFC001B681B68019308BDA001060808B5024BD1
:100C0C001B685B68019308BDA001060808B5024B80
:100C1C001B689B68019308BDA001060808B5024B30
:100C2C001B685B6C019308BDA00106080021FFF74F
:100C3C0051BF7047F8B5064615460C468F18BC4296
:100C4C0006D0336830469B6814F8011B9847F6E7CA
:100C5C002846F8BD0022007CFFF730BE0021007C46
:100C6C00FFF734BE0021007CFFF738BE0021007C6A
:100C7C00FFF73CBE0021007CFFF740BE10B50446D8
:100C8C00142100F0BFFF204610BD000010B54FF43A
:100C9C007A73044608460021C4E90113034B11463C
:100CAC0023602074FFF73AFE204610BDD4280A08B2
:100CBC000023007C1A461946FFF7E8BD7FB50022D9
:100CCC001423CDE90122ADF804300B78007C8DF8AB
:100CDC0008304B680393CB6804930B7A01A90593F6
:100CEC00FFF726FE07B05DF804FB1FB5003B8DF83F
:100CFC0000104FF0640118BF012303916946019263
:100D0C008DF80830FFF7DAFF05B05DF804FB01231E
:100D1C00FFF7EBBF0022007CFFF7C0BD0022007C78
:100D2C00FFF7C4BD0121FFF7F9BF704710B50446AA
:100D3C00182100F067FF204610BDF8B50E460024C0
:100D4C0000F10807051D17F8011D0A22304600F0B6
:100D5C001EF9AF42044401D12046F8BD002CF2D05C
:100D6C002E21304600F0FAF80444ECE710B50446A6
:100D7C00044B1122002140F8043B01F0AFFC20464B
:100D8C0010BD00BFFC280A080346074A10B543F8FB
:100D9C00042B01F1100251F8044B914243F8044B1F
:100DAC00F9D10A781A7010BDFC280A08024AC0E969
:100DBC000021042202757047FC280A0810B59DF822
:100DCC00084044EA0324042344EA024444EA01644C
:100DDC004460037510BD000037B5044D05609DF8E7
:100DEC0018500095FFF7EAFF03B030BDFC280A0845
:100DFC0013B5CB7800938B784A780978FFF7DEFF30
:100E0C0002B010BD014B024A1A607047100100205D
:100E1C0008290A08002340681A46FFF787BE0022FB
:100E2C0002214068FFF792BE002240681146FFF78E
:100E3C0085BE002240681146FFF790BE0023406833
:100E4C001A461946FFF792BE002340681A46194607
:100E5C00FFF794BE00214068FFF7B8BE0021406840
:100E6C00FFF7BCBE0022406881F00101FFF78EBE87
:100E7C0000224068FFF79ABE002240681146FFF737
:100E8C009DBE002240681146FFF788BE70B515461E
:100E9C008EB0044608A8FFF769FF1122002103A8B1
:100EAC0001F01CFC0026284601F04CFC0A4B009675
:100EBC0081B25B68284603AAFFF7FCFD30B13146CE
:100ECC002046FFF773FF20460EB070BD204603A9E5
:100EDC00FFF75AFFF7E700BF94050020034A044BC5
:100EEC00042814BF10461846704700BF1401002098
:100EFC0094050020024B034A1A6000225A60704786
:100F0C001401002014290A08F8B506460D460024E1
:100F1C008F18BD420CD0336830469B6815F8011B06
:100F2C009847031E01DB1C44F3E7002C08BF1C464A
:100F3C002046F8BD70B505460C46084649B101F08F
:100F4C0001FC2B68024621462846BDE87040DB6850
:100F5C00184770BD08B5FFF7EDFF08BD03689B6827
:100F6C00184738B50D210546FFF7F8FF0A2104464E
:100F7C002846FFF7F3FF204438BD38B50546FFF788
:100F8C00D9FF04462846FFF7ECFF204438BD002368
:100F9C00012A98BF0A2230B58BB00C468DF824304C
:100FAC0009A92546B4FBF2F404FB1253DBB2092B5E
:100FBC0094BF30333733DBB2AA4201F8013DF0D98C
:100FCC00FFF7B8FF0BB030BD0022014B9A607047A1
:100FDC001C01002070B5002604460D4640F8086F31
:100FEC00FFF70CFC28462570FFF7DCFC20466660FA
:100FFC0070BD10B504460068FFF700FE204610BD1A
:10100C0010B50446006808B1FFF7F8FD0023C4E9E9
:10101C000133236010BD38B504460D46006801311C
:10102C00FFF7F4FD10B1C4E90005012038BD10B57F
:10103C000368044623B143688B4201D3012010BDE1
:10104C002046FFF7E8FF0028F9D0A368002BF5D164
:10105C0022681370F2E770B50E4611460446154629
:10106C00FFF7E5FF20B92046FFF7CAFF204670BD09
:10107C002A4631462068A56001F022FB0021226837
:10108C00A368D154F2E738B5002304460D46C0E9F5
:10109C0000338360037339B1084601F053FB2946D2
:1010AC0002462046FFF7D7FF204638BD38B5054627
:1010BC000C4649B1084601F045FB2146024628463C
:1010CC00FFF7C9FF284638BDFFF79AFFFAE770B55E
:1010DC0005460E4609B9002070BD6AB184681444F7
:1010EC002146FFF7A4FF0028F5D02868AB683146ED
:1010FC00184401F01FFBAC600120EDE7002307B59D
:10110C0001228DF8041001A98DF80530FFF7DFFFDF
:10111C0003B05DF804FB000002220020044B1A60AF
:10112C00044B054A1860988098719A60FFF7CABC06
:10113C00380100202C0100200000FFFF024B1A6830
:10114C00024B1A60704700BF080000203C010020D1
:10115C0010B40468246BA44610BC604703689B6CF5
:10116C001847808E7047028FC08E101A704707B5D3
:10117C0003688DF807100122DB680DF10701984711
:10118C0003B05DF804FB10B5036804461B6998476F
:10119C0028B1E38EE26B591CE186D05C10BD4FF098
:1011AC00FF30FBE710B5036804461B69984718B17C
:1011BC00E38EE26BD05C10BD4FF0FF30FBE7704765
:1011CC000346084610B4D98EDC6B1A8F0368521A8A
:1011DC00DB68214410BC1847A0F11000FFF7F0BFEA
:1011EC002DE9F3411646036888465B6A0446984726
:1011FC003046FFF773FE0368DB689847054688B1F5
:10120C0002214346112208460096FFF7A3FB6061BA
:10121C00FFF798FB074648B10023A4F81880E38633
:10122C0023876664284602B0BDE8F0812368204617
:10123C005B6A98473D46F5E738B504464569FFF7C4
:10124C00A1FB854202D06069FFF794FBFFF79AFB84
:10125C0000236061E386238738BD10B5022486B075
:10126C00ADF80840BDF8204064BAADF80A40DC790E
:10127C008DF80C409C798DF80D405C791B798DF8BC
:10128C000E408DF80F301023019302AB0093406990
:10129C000023FFF767FB06B010BD70B50546C06BA9
:1012AC00EE8E68B12B6C9C1B944228BF14463044C4
:1012BC00224601F005FAEB8E20462344EB8670BDE6
:1012CC000446F1E770B5036804461B690E461546E3
:1012DC00984790B1236820461B6998478542A8BF60
:1012EC000546E38EE16B2A461944304601F0E8F9D5
:1012FC00E38E2B44E386284670BD4FF0FF35FAE7AA
:10130C002DE9F04104468AB0406C1F460D46164646
:10131C00FFF7E4FD0368DB68984728B94FF0FF3509
:10132C0028460AB0BDE8F081D4F81480FFF72AFBF8
:10133C008045F3D0002DF1D010230593002305AA8E
:10134C00019206AA29460092CDE9027332466069E1
:10135C00FFF720FB051EE3DB9DF81A209DF81B30E0
:10136C0007A943EA0223A38604F11C00FFF740FD02
:10137C00D6E700002DE9F041064694B0406C0D46CE
:10138C001746FFF7ABFD0368DB689847F0B12846BA
:10139C0001F0D8F9002481B2736C2846009403AA9A
:1013AC00FFF788FBA8B903A908A8FFF7EDFC336881
:1013BC000FACD3F83880084B09AD0E930FCD0FC48A
:1013CC002B683A46304623700EA9C04714B0BDE8CE
:1013DC00F0812046FAE700BFFC280A0870B50446E5
:1013EC000646054B01F1200544F8043B0FCD0FC414
:1013FC002B683046237070BDFC280A08F0B58C466B
:10140C0096460646026889B0976A094A03AD1C1DC8
:10141C0002920FCC0FC5236872462B70BDF8383082
:10142C0061460093304602ABB84709B0F0BD00BF2F
:10143C00FC280A08F0B50446036889B09F6A0C4B77
:10144C0003AD00F1200602930FCE0FC53368E28E78
:10145C002B70A38EE16B0093204602ABB847054678
:10146C0023682046DB699847284609B0F0BD00BFC9
:10147C00FC280A0838B500254FF47A73C0E90153EB
:10148C000C4B044603F108026C3302600361FFF756
:10149C0079FA606104F11C00FFF768FC4FF40073EB
:1014AC002046C4E91035E5862587E56384F8485065
:1014BC0038BD00BF64290A0810B590F848300446BE
:1014CC0023B1C06B10B1012100F09CFB0023E3633E
:1014DC0084F848302364E386238710BD70B5044636
:1014EC0016460D46FFF7E8FF0023E66323642EB192
:1014FC002564206C003818BF012070BD002DF8D079
:10150C002846FEF7C2FD0123E06384F8483000282A
:10151C00EFD0EDE7F8B51746C26B05460C461AB985
:10152C00016C09B1FFF7DAFF05F1200604340FCC8A
:10153C000FC6236833700023286CAF86EB862B878D
:10154C00F8BD70B5C26B04460D461AB9016C09B1F1
:10155C00FFF7C4FF0023E16BE386238749B1226CBC
:10156C003AB1236820461E6B2B46B0470028C8BFF3
:10157C00208723682046BDE870401B69184700008F
:10158C0010B50446064B03F108026C33026003618C
:10159C00FFF752FE2046FFF78FFF204610BD00BF1D
:1015AC0064290A0810B50446FFF7EAFF20464C21CF
:1015BC0000F028FB204610BD7047417470477047FF
:1015CC0008B5007CFFF736FA20EAE07008BD08B5D4
:1015DC00007CFFF707FA20EAE07008BD08B5007C34
:1015EC00FFF710FA40EAE07008BD08B5007CFFF781
:1015FC0001FA40EAE07008BD007CFFF70BBA70B549
:10160C00467C04460D462EB12946207CBDE8704030
:10161C00FFF7E0B9007CFFF70DFA0028F4DC304648
:10162C0070BD10B50446142100F0ECFA204610BD34
:10163C004FF0000C10B50446084611464FF47A7270
:10164C00C4E901C2044A20742260012262741A4661
:10165C00FFF7B8F9204610BDDC290A0838B50C4D47
:10166C002978BFF35B8F11F001040FD12846FEF7E8
:10167C0010FD58B12146074B074A0848FFF7D8FF21
:10168C002846FEF70BFD064801F014F8034838BD58
:10169C0040010020C8010020440100204C02002021
:1016AC00CB150A08417470477047704708B5002184
:1016BC00007CFFF7E7F940EAE07008BD08B50121AE
:1016CC00007CFFF7DFF940EAE07008BD08B5007C4C
:1016DC00FFF7D0F920EAE07008BD08B5007CFFF7F1
:1016EC00C1F920EAE07008BD38B50446007C0D460F
:1016FC00FFF7C0F9002801DC607C28B12946207C6A
:10170C00FFF7C8F920EAE07038BD007CFFF7CAB9D2
:10171C0010B50446142100F075FA204610BD704730
:10172C0010B54FF47A73044608460021C4E901133E
:10173C00044B20742360012311466374FFF782F974
:10174C00204610BD0C2A0A080022007CFFF782B943
:10175C0010B504461422002100F0C0FF054B2046B2
:10176C006360054BE36040F20113238181232382E4
:10177C0010BD00BF900200209103002030B50E4D2B
:10178C0087B001A8FFF7E4FF2978BFF35B8F11F056
:10179C0001040ED12846FEF77CFC50B1214601AA6B
:1017AC000648FFF7BDFF2846FEF778FC044800F01A
:1017BC0081FF024807B030BD6002002068020020A3
:1017CC00B5160A0810B504461422002100F086FF55
:1017DC00054B20466360054BE36040F20113238107
:1017EC008123238210BD00BF1204002013050020AA
:1017FC0010B50E4C86B001A8FFF7E4FF2378BFF3B9
:10180C005B8FDB070ED42046FEF743FC50B1012161
:10181C0001AA0748FFF784FF2046FEF73FFC054866
:10182C0000F048FF024806B010BD00BF6402002063
:10183C007C0200202B170A08002240681146FFF793
:10184C008DB9F0B5154689B011220E46044600211B
:10185C0003A800F043FF284600F074FF002781B274
:10186C0073682846009703AAFFF724F930B139466C
:10187C002046FFF79BFA204609B0F0BD204603A98D
:10188C00FFF782FAF7E7002240681146FFF786B9A6
:10189C00002240681146FFF791B900224068FFF71B
:1018AC0085B90022406881F00101FFF76FB9002370
:1018BC0040681A461946FFF761B9002340681A467A
:1018CC001946FFF753B9002240681146FFF736B9A5
:1018DC00002202214068FFF739B9002340681A46FC
:1018EC00FFF724B90422024B5A60024A1A6070476F
:1018FC00940500203C2A0A08014B1860704700BF71
:10190C000C00002008B5134B43B1FFF737FF0368F9
:10191C001B699847002801DDAFF300800E4B43B1E3
:10192C00FFF79CFE03681B699847002801DDAFF3A5
:10193C0000800A4B0BB1AFF30080094B43B1FFF7AA
:10194C0057FF03681B699847002801DDAFF300803F
:10195C0008BD00BF000000000000000000000000F7
:10196C000000000008B5FFF7CDFFFEF75FFF014B4D
:10197C00186008BDB40500200548064A08B5121ABF
:10198C00054900F09DFE054B054A1A6008BD00BFD5
:10199C000040024004400240A02A0A0800400240D5
:1019AC001E1C279A002307B51A466FF07701009387
:1019BC00FFF7AAF803B05DF804FB000007B54388F5
:1019CC000A2B08D0502B0BD1094B1B684BB103B021
:1019DC005DF804EB1847FFF7E5FF03B05DF804FB77
:1019EC0000231A466FF077010093FFF78DF8F4E7A8
:1019FC00A0050020002110B51148FFF70FF9114B7D
:101A0C001A68114B9A420CBF012200220F4B1A701C
:101A1C0001D0FFF7B1FFFEF701FF044600F066FEB0
:101A2C000B4B13B12046AFF3008000210848FFF7A1
:101A3C0075F8BDE8104000210648FFF75BB800BF01
:101A4C0005190A08004002401E1C279A9C0500201C
:101A5C0000000000C9190A08024B986808B1FEF78B
:101A6C00D5BE7047A8050020172870B5044601D9CB
:101A7C00002070BDA0F10D03022B0BD9012824D836
:101A8C0000F08EF80021007CFEF740FF80F0010092
:101A9C00C0B2EEE7124E3178BFF35B8F11F0010547
:101AAC000DD13046FEF7F5FA48B129460D48FFF73F
:101ABC0091FA3046FEF7F2FA0B4800F0FBFD094BA9
:101ACC001878FEF777FF0028D2D1123C012C05D8EC
:101ADC00FFF7C4FD007CFEF7A5FFD7E70120C8E7A0
:101AEC00A4050020A8050020651A0A08172838B597
:101AFC0004460D460AD8FF2908D0FFF7B5FF28B1D8
:101B0C0029462046BDE83840FEF7A0BE38BD38B5A2
:101B1C0004460D46FEF7A2FEFF2810D0062804D876
:101B2C004D2323FA00F0C30709D42046FFF79CFF8E
:101B3C0028B129462046BDE83840FEF797BE38BD8F
:101B4C0010B5044609289CBF0A34A4B22046FFF7FE
:101B5C008BFF50B103212046FEF770FE032804D101
:101B6C002046BDE81040FEF789BE002010BD70472E
:101B7C00002370B5202543801423084E04460380AF
:101B8C00314685600561284600F03EF831466060BC
:101B9C00284600F039F8E060204670BD702A0A082B
:101BAC0030B50E4D87B02978BFF35B8F11F001046F
:101BBC0011D12846FEF76DFA68B101A8FFF7D8FFDE
:101BCC00214601AA0648FFF761F82846FEF766FA97
:101BDC00044800F06FFD024807B030BDB805002086
:101BEC00BC0500207B1B0A08002307B51A461946C2
:101BFC0000930348FFF7F0F803B05DF804FB00BF57
:101C0C00D0050020FEF743BAFEF73FBA81F0004141
:101C1C0002E000BF83F0004330B54FEA41044FEAC5
:101C2C00430594EA050F08BF90EA020F1FBF54EA60
:101C3C00000C55EA020C7FEA645C7FEA655C00F0FC
:101C4C00E2804FEA5454D4EB5555B8BF6D420CDDCD
:101C5C002C4480EA020281EA030382EA000083EA50
:101C6C00010180EA020281EA0303362D88BF30BDF0
:101C7C0011F0004F4FEA01314FF4801C4CEA113146
:101C8C0002D0404261EB410113F0004F4FEA0333A5
:101C9C004CEA133302D0524263EB430394EA050F30
:101CAC0000F0A780A4F10104D5F1200E0DDB02FA9F
:101CBC000EFC22FA05F2801841F1000103FA0EF233
:101CCC00801843FA05F359410EE0A5F120050EF1F9
:101CDC00200E012A03FA0EFC28BF4CF0020C43FA2A
:101CEC0005F3C01851EBE37101F0004507D54FF037
:101CFC00000EDCF1000C7EEB00006EEB0101B1F587
:101D0C00801F1BD3B1F5001F0CD349085FEA3000CC
:101D1C004FEA3C0C04F101044FEA445212F5800FD7
:101D2C0080F09A80BCF1004F08BF5FEA500C50F174
:101D3C00000041EB045141EA050130BD5FEA4C0C57
:101D4C00404141EB0101013C28BFB1F5801FE9D2B4
:101D5C0091F0000F04BF01460020B1FA81F308BFD7
:101D6C002033A3F10B03B3F120020CDA0C3208DDA3
:101D7C0002F1140CC2F10C0201FA0CF021FA02F17E
:101D8C000CE002F11402D8BFC2F1200C01FA02F1EE
:101D9C0020FA0CFCDCBF41EA0C019040E41AA2BF13
:101DAC0001EB0451294330BD6FEA04041F3C1CDADB
:101DBC000C340EDC04F11404C4F1200220FA04F0FB
:101DCC0001FA02F340EA030021FA04F345EA0301A5
:101DDC0030BDC4F10C04C4F1200220FA02F001FA67
:101DEC0004F340EA0300294630BD21FA04F02946E9
:101DFC0030BD94F0000F83F4801306BF81F4801182
:101E0C000134013D4EE77FEA645C18BF7FEA655CF4
:101E1C0029D094EA050F08BF90EA020F05D054EAC6
:101E2C00000C04BF1946104630BD91EA030F1EBFCB
:101E3C000021002030BD5FEA545C05D140004941CF
:101E4C0028BF41F0004130BD14F580043CBF01F5C2
:101E5C00801130BD01F0004545F0FE4141F47001A8
:101E6C004FF0000030BD7FEA645C1ABF1946104683
:101E7C007FEA655C1CBF0B46024650EA013406BF84
:101E8C0052EA033591EA030F41F4002130BD00BF43
:101E9C0090F0000F04BF0021704730B54FF4806400
:101EAC0004F132044FF000054FF0000150E700BF81
:101EBC0090F0000F04BF0021704730B54FF48064E0
:101ECC0004F1320410F0004548BF40424FF00001CD
:101EDC003EE700BF42004FEAE2014FEA31014FEA10
:101EEC0002701FBF12F07F4393F07F4F81F060515F
:101EFC00704732F07F4208BF704793F07F4F04BFAA
:101F0C0041F40021704730B54FF4607401F0004586
:101F1C0021F000411CE700BF50EA010208BF7047E6
:101F2C0030B54FF000050AE050EA010208BF7047D7
:101F3C0030B511F0004502D5404261EB41014FF440
:101F4C00806404F132045FEA915C3FF4D8AE4FF048
:101F5C0003025FEADC0C18BF03325FEADC0C18BF2B
:101F6C00033202EBDC02C2F1200300FA03FC20FA7C
:101F7C0002F001FA03FE40EA0E0021FA02F11444C9
:101F8C00BDE600BF70B54FF0FF0C4CF4E06C1CEAE2
:101F9C0011541DBF1CEA135594EA0C0F95EA0C0F53
:101FAC0000F0DEF82C4481EA030621EA4C5123EAC6
:101FBC004C5350EA013518BF52EA033541F48011F5
:101FCC0043F4801338D0A0FB02CE4FF00005E1FBA8
:101FDC0002E506F00042E0FB03E54FF00006E1FBF2
:101FEC0003569CF0000F18BF4EF0010EA4F1FF0435
:101FFC00B6F5007F64F5407404D25FEA4E0E6D4175
:10200C0046EB060642EAC62141EA55514FEAC52085
:10201C0040EA5E504FEACE2EB4F1FD0C88BFBCF501
:10202C00E06F1ED8BEF1004F08BF5FEA500E50F1B2
:10203C00000041EB045170BD06F0004646EA010178
:10204C0040EA020081EA0301B4EB5C04C2BFD4EBAA
:10205C000C0541EA045170BD41F480114FF0000EA3
:10206C00013C00F3AB8014F1360FDEBF002001F011
:10207C00004170BDC4F10004203C35DA0C341BDC8B
:10208C0004F11404C4F1200500FA05F320FA04F05D
:10209C0001FA05F240EA020001F0004221F0004191
:1020AC0010EBD37021FA04F642EB06015EEA430E04
:1020BC0008BF20EAD37070BDC4F10C04C4F1200534
:1020CC0000FA04F320FA05F001FA04F240EA0200E7
:1020DC0001F0004110EBD37041F100015EEA430EB8
:1020EC0008BF20EAD37070BDC4F1200500FA05F2D8
:1020FC004EEA020E20FA04F301FA05F243EA020357
:10210C0021FA04F001F0004121FA04F220EA020065
:10211C0000EBD3705EEA430E08BF20EAD37070BDAB
:10212C0094F0000F0FD101F00046400041EB01018B
:10213C0011F4801F08BF013CF7D041EA060195F06D
:10214C00000F18BF704703F00046520043EB030327
:10215C0013F4801F08BF013DF7D043EA0603704714
:10216C0094EA0C0F0CEA135518BF95EA0C0F0CD01F
:10217C0050EA410618BF52EA4306D1D181EA030165
:10218C0001F000414FF0000070BD50EA410606BF5F
:10219C001046194652EA430619D094EA0C0F02D1A4
:1021AC0050EA013613D195EA0C0F05D152EA0336E9
:1021BC001CBF104619460AD181EA030101F0004107
:1021CC0041F0FE4141F470014FF0000070BD41F050
:1021DC00FE4141F4780170BD70B54FF0FF0C4CF42A
:1021EC00E06C1CEA11541DBF1CEA135594EA0C0F49
:1021FC0095EA0C0F00F0A7F8A4EB050481EA030E96
:10220C0052EA03354FEA013100F088804FEA03337C
:10221C004FF0805545EA131343EA12634FEA02224A
:10222C0045EA111545EA10654FEA00260EF000410B
:10223C009D4208BF964244F1FD0404F5407402D25D
:10224C005B084FEA3202B61A65EB03055B084FEAEE
:10225C0032024FF480104FF4002CB6EB020E75EBEB
:10226C00030E22BFB61A754640EA0C005B084FEA13
:10227C003202B6EB020E75EB030E22BFB61A754690
:10228C0040EA5C005B084FEA3202B6EB020E75EBDB
:10229C00030E22BFB61A754640EA9C005B084FEA53
:1022AC003202B6EB020E75EB030E22BFB61A754660
:1022BC0040EADC0055EA060E18D04FEA051545EA4F
:1022CC0016754FEA06164FEAC30343EA52734FEAF8
:1022DC00C2025FEA1C1CC0D111F4801F0BD141EA71
:1022EC0000014FF000004FF0004CB6E711F4801FD6
:1022FC0004BF01430020B4F1FD0C88BFBCF5E06FB6
:10230C003FF6AFAEB5EB030C04BFB6EB020C5FEAC5
:10231C00500C50F1000041EB045170BD0EF0004E1A
:10232C004EEA113114EB5C04C2BFD4EB0C0541EA4C
:10233C00045170BD41F480114FF0000E013C90E649
:10234C0045EA060E8DE60CEA135594EA0C0F08BF0D
:10235C0095EA0C0F3FF43BAF94EA0C0F0AD150EA0C
:10236C0001347FF434AF95EA0C0F7FF425AF10469F
:10237C0019462CE795EA0C0F06D152EA03353FF4C7
:10238C00FDAE1046194622E750EA410618BF52EA44
:10239C0043067FF4C5AE50EA41047FF40DAF52EA18
:1023AC0043057FF4EBAE12E74FEA410212F500123F
:1023BC0015D211D56FF47873B3EB625212D94FEA80
:1023CC00C12343F0004343EA505311F0004F23FA6A
:1023DC0002F018BF404270474FF00000704750EABF
:1023EC00013005D111F0004008BF6FF0004070477C
:1023FC004FF00000704700BF4FEA4102B2F1E043DA
:10240C0024BFB3F5001CDCF1FE5C0DD901F0004CCF
:10241C004FEAC0024CEA5070B2F1004F40EB83001F
:10242C0008BF20F00100704711F0804F21D113F14B
:10243C003872BCBF01F00040704741F480114FEA84
:10244C005252C2F11802C2F1200C10FA0CF320FA0D
:10245C0002F018BF40F001004FEAC1234FEAD3232A
:10246C0003FA0CFC40EA0C0023FA02F34FEA430394
:10247C00CCE77FEA625307D150EA01331EBF4FF01D
:10248C00FE4040F44000704701F0004040F0FE4038
:10249C0040F40000704700BF80F0004002E000BF35
:1024AC0081F0004142001FBF5FEA410392EA030F33
:1024BC007FEA226C7FEA236C6AD04FEA1262D2EB7D
:1024CC001363C1BFD218414048404140B8BF5B4282
:1024DC00192B88BF704710F0004F40F4000020F01B
:1024EC007F4018BF404211F0004F41F4000121F031
:1024FC007F4118BF494292EA030F3FD0A2F101027B
:10250C0041FA03FC10EB0C00C3F1200301FA03F1B8
:10251C0000F0004302D5494260EB4000B0F5000FDB
:10252C0013D3B0F1807F06D340084FEA310102F19A
:10253C000102FE2A51D2B1F1004F40EBC25008BF4C
:10254C0020F0010040EA03007047490040EB000016
:10255C00013A28BFB0F5000FEDD2B0FA80FCACF117
:10256C00080CB2EB0C0200FA0CF0AABF00EBC25044
:10257C0052421843BCBFD0401843704792F0000F32
:10258C0081F4000106BF80F400000132013BB5E785
:10259C004FEA41037FEA226C18BF7FEA236C21D0FB
:1025AC0092EA030F04D092F0000F08BF0846704760
:1025BC0090EA010F1CBF0020704712F07F4F04D12E
:1025CC00400028BF40F00040704712F100723CBF41
:1025DC0000F50000704700F0004343F0FE4040F46B
:1025EC00000070477FEA226216BF08467FEA236329
:1025FC000146420206BF5FEA412390EA010F40F414
:10260C00800070474FF0000304E000BF10F000435F
:10261C0048BF40425FEA000C08BF704743F0964346
:10262C0001464FF000001CE050EA010208BF704761
:10263C004FF000030AE000BF50EA010208BF7047E8
:10264C0011F0004302D5404261EB41015FEA010CFD
:10265C0002BF84460146002043F0B64308BFA3F1F5
:10266C008053A3F50003BCFA8CF2083AA3EBC253D7
:10267C0010DB01FA02FC634400FA02FCC2F12002F6
:10268C00BCF1004F20FA02F243EB020008BF20F02D
:10269C000100704702F1200201FA02FCC2F1200293
:1026AC0050EA4C0021FA02F243EB020008BF20EA88
:1026BC00DC707047002301461A46184600F04AB8F1
:1026CC000A44914200F1FF3300D1704710B511F864
:1026DC00014B914203F8014FF9D110BD034602445E
:1026EC00934200D1704703F8011BF9E738B50D4B45
:1026FC0004461D68AB6B7BB91820FEF777FA0A4AC3
:10270C000A4BA863C0E90023094B012283600B2309
:10271C0083810023C0E904230022AB6B1C615A6146
:10272C0038BD00BF0C0000200E33CDAB34126DE66B
:10273C00ECDE0500034611F8012B03F8012B002AEF
:10274C00F9D17047034613F8012B002AFBD1181A54
:10275C00013870472DE9F843DFF8BC800646D8F8FD
:10276C0000001F460D46914600F058F8264B1C6899
:10277C0034B9264C1C60264B13B11B68C4F8883046
:10278C0063681F2B07DDD8F8000000F049F84FF004
:10279C00FF30BDE8F8835EB3D4F8880088B91D4BD0
:1027AC0023B9D8F8000000F03AF8F0E74FF4847041
:1027BC00FEF71CFA0028F4D00023C0E94033C4F81B
:1027CC00880001226368022E40F8239002FA03F27B
:1027DC0000EB8301D0F8003143EA0203C0F800316A
:1027EC00C1F8807002BFD0F804311A43C0F804213C
:1027FC006368D8F800005A1C0233626044F8235016
:10280C0000F00EF80020C4E774060020E805002054
:10281C0000000000F90B0A08700000207047704798
:10282C00704700001D000A085D000A0885000A08B0
:10283C0089000A08000000004D5055363035302014
:10284C00636F6E6E656374696F6E20737563636519
:10285C00737366756C004D50553630353020636F90
:10286C006E6E656374696F6E206661696C65640079
:10287C00496E697469616C697A696E672049324383
:10288C0020646576696365732E2E2E00546573740F
:10289C00696E672064657669636520636F6E6E652B
:1028AC006374696F6E732E2E2E0057694669206310
:1028BC006F6E6E6563746564002F726F70650000D7
:1028CC0000000000000000003F0C0A08890C0A08F8
:1028DC00610C0A08410C0A08690C0A08710C0A08F8
:1028EC00790C0A08810C0A080000000000000000A6
:1028FC00470D0A08370D0A08390D0A086170700077
:10290C000000000000000000210E0A082B0E0A082F
:10291C00350E0A083F0E0A08490E0A08550E0A0819
:10292C00610E0A08690E0A08710E0A087D0E0A0863
:10293C00850E0A088F0E0A08990E0A0825592D25AE
:10294C006D2D25645425483A254D3A2553257A009A
:10295C0061736374696D6500000000000000000085
:10296C008D150A08B1150A087B110A08A7120A0866
:10297C0073110A0893110A08B1110A08CB110A083D
:10298C00ED110A0845120A0867120A0809140A0808
:10299C000D130A085D110A0821150A0881130A088B
:1029AC0041140A084F150A08D1120A0869110A08BD
:1029BC00E9130A086F110A08CD110A08F0FFFFFF8E
:1029CC0000000000E5110A080000000000000000F3
:1029DC00C5150A082F160A080B160A08150F0A083F
:1029EC00DB150A08F7150A08E9150A0805160A087E
:1029FC00C7150A08CD150A080000000000000000E9
:102A0C00B7160A081D170A08F5160A08150F0A0842
:102A1C00E7160A08B9160A08C9160A0817170A0889
:102A2C00D9160A08B1160A080000000000000000C0
:102A3C00E7180A08DD180A08D3180A0845180A0806
:102A4C00C7180A08BB180A08610E0A08690E0A089A
:102A5C00AF180A08A7180A089D180A0893180A083C
:102A6C004F180A080000000091020A08110E0A080B
:102A7C00010F0A08D50F0A0825110A0849110A087E
:102A8C00F1180A08F51B0A080000000000000000FD
:042A9C000000000036
:042AA0000000000032
:102AA400100D0000E80300005C290A081000002053
:102AB4000000000000000000000000000000000012
:102AC4000000000000000000000000000000000002
:102AD40000000000000000000000000000000000F2
:102AE40000000000000000000000000000000000E2
:102AF40000000000000000000000000000000000D2
:102B040000000000000000000000000000000000C1
:042B1400790600201E
:102B1800FFFFFFFF00000102030405060708090A7A
:102B28000B0C0D0E0F101112131415161718191A75
:082B38001B1C1D1E1F202800BC
:042B4000785634127D
:04000005080A001CC9
:00000001FF
