:02000002D0002C
:1040000000400D0078510D00000006000C00050175
:0840100004019A080000000001
:044018002C4F0D001C
:10401C0009480A49884208B505D0094A824202D0AB
:10402C00121A00F0D5FE0748074A0021121A00F0B8
:10403C00DDFE014808BD00BF30E50320E4500D0053
:10404C009CE503209CE50320EDE7032070B5074EAB
:10405C00074C00F0EFFDA41BA4080025A54200D1DD
:10406C0070BD56F8043B98470135F7E7B8500D0082
:10407C00DC500D0000F013B808B500F019F8BDE8DD
:10408C00084000F08FBD00F0DFB900F0E5B9007812
:10409C00B0FA80F04009704701230370704708B5EF
:1040AC0000F0FAFCBDE808404FF4165100F0E8BCF3
:1040BC0038B5132000F02EFE044600F0EDFC0D493F
:1040CC0000F0B4FB00F0E8FC002C05460FDA2D21C3
:1040DC0000F0B0FB61420A22284600F0BAFB2846E9
:1040EC0000F0ABFBBDE83840012000F0C5B921461B
:1040FC00F1E700BF404F0D0008B50120002100F092
:10410C001FF9064B00221A609A809A71A2F5803230
:10411C009A60BDE80840012000F002B99CE503203C
:10412C0008B5024B1B685B6C019308BD4802030089
:10413C0008B5024B1B685B68019308BD18020300AD
:10414C0008B5024B1B685B69019308BD180203009C
:10415C0008B5024B1B685B68019308BD2C02030079
:10416C0008B5024B1B681B6B019308BD2C020300A6
:10417C0008B5024B1B681B6A019308BD280203009B
:10418C0008B5024B1B685B6A019308BD280203004B
:10419C0008B5024B1B689B6A019308BD28020300FB
:1041AC0008B5024B1B68DB6A019308BD28020300AB
:1041BC0008B5024B1B681B6B019308BD280203005A
:1041CC0008B5024B1B685B6B019308BD280203000A
:1041DC0008B5024B1B681B6C019308BD2802030039
:1041EC0008B5024B1B685B69019308BD64020300B0
:1041FC0008B5024B1B689B68019308BD680203005D
:10420C0008B5024B1B68DB68019308BD680203000C
:10421C0008B5024B1B68DB69019308BD3002030033
:10422C0008B5024B1B681B6A019308BD30020300E2
:10423C0008B5024B1B681B68019308BD3C020300C8
:10424C0008B5024B1B68DB68019308BD3C020300F8
:10425C0008B5024B1B681B69019308BD3C020300A7
:10426C0008B5024B1B685B69019308BD3C02030057
:10427C0008B5024B1B689B69019308BD3C02030007
:10428C0008B5024B1B68DB69019308BD3C020300B7
:10429C0008B5024B1B681B6A019308BD3C02030066
:1042AC0008B5024B1B689B6A019308BD3C020300D6
:1042BC0008B5024B1B681B68019308BD4C02030038
:1042CC0008B5024B1B685B68019308BD4C020300E8
:1042DC0008B5024B1B681B69019308BD4C02030017
:1042EC0008B5024B1B685B69019308BD4C020300C7
:1042FC0008B5024B1B689B69019308BD4C02030077
:10430C0008B5024B1B68DB69019308BD4C02030026
:10431C0008B5024B1B681B6A019308BD4C020300D5
:10432C0008B5024B1B685B68019308BD20020300B3
:10433C0008B5024B1B685B69019308BD20020300A2
:10434C0008B5024B1B68DB6A019308BD2002030011
:10435C0008B5034B1B68D3F88830019308BD0000E7
:10436C002002030008B5034B1B68D3F8943001936B
:10437C0008BD00002002030008B5024B1B68DB6B74
:10438C00019308BD4402030008B5024B1B685B682F
:10439C00019308BD4002030008B5024B1B689B68E3
:1043AC00019308BD4002030008B5024B1B68DB6893
:1043BC00019308BD4002030008B5024B1B681B6942
:1043CC00019308BD4002030008B5024B1B685B69F2
:1043DC00019308BD4002030008B5024B1B689B69A2
:1043EC00019308BD4002030008B5024B1B68DB6952
:1043FC00019308BD4002030008B5024B1B681B6A01
:10440C00019308BD4002030008B5024B1B681B6BEF
:10441C00019308BD4002030008B5024B1B685B6B9F
:10442C00019308BD4002030008B5024B1B681B6CCE
:10443C00019308BD4002030008B5024B1B685B6C7E
:10444C00019308BD4002030008B5024B1B681B68B2
:10445C00019308BD1C02030008B5024B1B685B6886
:10446C00019308BD1C02030008B5024B1B685B6C72
:10447C00019308BD1C0203000021FFF759BF000087
:10448C00024800230360FFF74BBE00BFA8E50320E2
:10449C00002240681146FFF7AFBF0022406811466A
:1044AC00FFF7BABF40680022FFF7AEBF406800229A
:1044BC0081F00101FFF798BF002340681A461946A6
:1044CC00FFF78ABF002340681A461946FFF77CBFE6
:1044DC00002240681146FFF76FBF0022406811466A
:1044EC00FFF75ABF406800220221FFF75DBF00238F
:1044FC0040681A46FFF748BF024B03225A60024A33
:10450C001A607047ACE503204C4F0D007047F8B5AE
:10451C00064615460C468F18BC4206D0336814F874
:10452C00011B9B6830469847F6E72846F8BD007C8F
:10453C000022FFF71DBE007C0021FFF721BE007C8E
:10454C000021FFF725BE007C0021FFF729BE007C6F
:10455C000021FFF72DBE10B51421044600F02EFCEF
:10456C00204610BD10B54FF47A730446084600215E
:10457C00C4E90113034B236020741146FFF728FE96
:10458C00204610BD884F0D00704710B51821044609
:10459C0000F014FC204610BDF0B5037D062B8DB049
:1045AC000E4600F104074FF0000412D000F108058C
:1045BC0015F8011D0A22304600F04BF9AF420444B5
:1045CC0019D0002CF4D02E21304600F033F90444DD
:1045DC00EEE72F236A4639460A208DF80040FFF794
:1045EC00FFFD684600F02EFC33680246DB68694626
:1045FC0030469847044620460DB0F0BD10B5054B2B
:10460C000446112240F8043B002100F0EFFB204649
:10461C0010BD00BFB04F0D000346074A10B543F85C
:10462C00042B01F1100251F8044B43F8044B914256
:10463C00F9D10A781A7010BDB04F0D0010B59DF865
:10464C00084044EA032343EA024242EA016104239C
:10465C004160037510BD13B5CB7800938B784A7805
:10466C000978FFF7EBFF02B010BD0000014B024AC6
:10467C001A607047B4E50320BC4F0D00002340685E
:10468C001A46FFF781BE406800220221FFF78CBE5C
:10469C00002240681146FFF77FBE00224068114699
:1046AC00FFF78ABE002340681A461946FFF78CBEF6
:1046BC00002340681A461946FFF78EBE4068002159
:1046CC00FFF7B2BE40680021FFF7B6BE406800227B
:1046DC0081F00101FFF788BE40680022FFF794BE0D
:1046EC00002240681146FFF797BE00224068114631
:1046FC00FFF782BE2DE9F043002495B016460D4617
:10470C000746FFF77BFF214618220EA8009400F005
:10471C006DFB4023CDE90C3421466B460CAA304688
:10472C00FFF76EFD0446002846D102460121686859
:10473C00FFF742FE0221804622466868FFF73CFEE6
:10474C00009E81462146002E36D0002934D1736854
:10475C00022B03D00A2B0BD0F669F4E7B8F1000F4B
:10476C0004D0716938460431FFF775FF4146F3E711
:10477C00B9F1000F01D14946EEE77469102201A886
:10478C0000F034FB06238DF8143001AD04F108035E
:10479C001834186859682A4603C20833A3421546D0
:1047AC00F7D101A906A807ADFFF736FF0FCD3C1DC9
:1047BC000FC42B682370DEE70098FFF719FD38460D
:1047CC0015B0BDE8F0830000024B034A1A600022CA
:1047DC005A607047B8E50320C84F0D00F8B506467F
:1047EC000D468F180024BD420CD0336815F8011B00
:1047FC009B6830469847031E01DB1C44F3E7002CF2
:10480C0008BF1C462046F8BD13B50446084659B1EE
:10481C00019100F017FB23680199DB6802462046E2
:10482C0002B0BDE81040184702B010BD08B5FFF744
:10483C00EBFF08BD03689B68184738B50D2105468A
:10484C00FFF7F8FF0A2104462846FFF7F3FF204440
:10485C0038BD30B58BB000238DF82430012A98BFB9
:10486C000A2209AC0D46B1FBF2F101FB125303F025
:10487C00FF03092B94BF30333733DBB2AA4204F861
:10488C00013DEFD92146FFF7BFFF0BB030BD000053
:10489C00014B00229A607047C0E5032010B5044616
:1048AC0008462170FFF7B4FC00236360204610BD5E
:1048BC00054B02221A60054B054A9A6000201860CD
:1048CC0098809871FFF72CBDDCE50320D0E5032020
:1048DC000000FFFF024B1A68024B1A60704700BFC2
:1048EC0030E50320E0E503207047417470477047C2
:1048FC0008B5007CFFF7D4FC20EAE07008BD08B5D1
:10490C00007CFFF7A5FC20EAE07008BD08B5007C30
:10491C00FFF7AEFC40EAE07008BD08B5007CFFF77D
:10492C009FFC40EAE07008BD007CFFF7A9BC37B5DE
:10493C00457C04462DB1207C03B0BDE83040FFF728
:10494C007FBC007C0191FFF7ABFC00280199F2DCE5
:10495C00284603B030BD10B51421044600F02EFAE1
:10496C00204610BD10B54FF0000C04460846114609
:10497C004FF47A72C4E901C2044A22600122207405
:10498C0062741A46FFF754FC204610BD20500D00EF
:10499C0013B50D4C2178BFF35B8F11F0010110D1D1
:1049AC0020460191FFF773FB019950B1074B084A60
:1049BC000848FFF7D7FF2046FFF76EFB064800F0CC
:1049CC0001FA044802B010BDE4E503206CE60320B4
:1049DC00E8E50320F0E60320FB480D004174704726
:1049EC007047704708B50021007CFFF781FC40EA56
:1049FC00E07008BD08B50121007CFFF779FC40EAA6
:104A0C00E07008BD08B5007CFFF76AFC20EAE07096
:104A1C0008BD08B5007CFFF75BFC20EAE07008BD20
:104A2C0013B50446007C0191FFF75AFC002801994C
:104A3C0001DC607C20B1207CFFF762FC20EAE07096
:104A4C0002B010BD007CFFF763BC10B51421044606
:104A5C0000F0B4F9204610BD10B54FF47A7304463B
:104A6C0008460021C4E90113044B23600123207480
:104A7C0063741146FFF71CFC204610BD50500D000E
:104A8C00007C0022FFF71CBC10B514220446002148
:104A9C0000F0ACF9204610BD10B50F4C88B003A83F
:104AAC00FFF7F2FF2178BFF35B8F11F001010FD1FB
:104ABC0020460191FFF7EBFA019948B103AA074888
:104ACC00FFF7CAFF2046FFF7E7FA054800F07AF92E
:104ADC00024808B010BD00BF04E7032008E703201C
:104AEC00ED490D00002240681146FFF765BC00221D
:104AFC0040681146FFF780BC002240681146FFF762
:104B0C008BBC40680022FFF77FBC4068002281F01C
:104B1C000101FFF769BC002340681A461946FFF7EC
:104B2C005BBC002340681A461946FFF74DBC0022B7
:104B3C0040681146FFF730BC406800220221FFF7A5
:104B4C0033BC002340681A46FFF71EBC024B0422FC
:104B5C005A60024A1A6070471CE7032080500D000F
:104B6C00014B1860704700BF34E5032008B50B4BB0
:104B7C0043B1FFF791FF03681B699847002801DDDB
:104B8C00AFF30080064B43B1FFF702FF03681B69CC
:104B9C009847002801DDAFF3008008BD000000003D
:104BAC000000000008B5FFF7E1FFFFF7C9FA014B61
:104BBC00186008BD38E703200548064A064908B5C1
:104BCC00121A00F005F9054B054A1A6008BD00BF22
:104BDC0000F4032004F40320E0500D0000F4032043
:104BEC001E1C279A07B5002300931A466FF0770115
:104BFC00FFF7B8FB03B05DF804FB000007B5438872
:104C0C000A2B08D0502B0BD1094B1B684BB103B0AE
:104C1C005DF804EB1847FFF7E5FF03B05DF804FB04
:104C2C00002300931A466FF07701FFF79BFBF4E724
:104C3C0028E7032010B512480021FFF715FC114B93
:104C4C001A68114B9A42114B0CBF012200221A70A8
:104C5C0001D0FFF7B1FFFFF76BFA044600F0CEF876
:104C6C000B4B13B12046AFF3008000210848FFF72F
:104C7C0083FBBDE8104007480021FFF769BB00BF6C
:104C8C006D4B0D0000F403201E1C279A24E7032013
:104C9C0000000000094C0D00232813B502D9002098
:104CAC0002B010BDA0F10B03022B1AD8174C2178BF
:104CBC00BFF35B8F11F001010BD120460191FFF77F
:104CCC00E6F9019928B11248FFF7E8FD2046FFF7F5
:104CDC00E3F90F4B1878FFF7A3FA0028DFD1012076
:104CEC00DEE7012809D800F045F80021007CFFF729
:104CFC0067FA80F00100C0B2D2E709380128EED87B
:104D0C00FFF746FE007CFFF7C3FAF2E72CE703201F
:104D1C0030E703200D2810B504469CBF0E34A4B216
:104D2C002046FFF7B9FF50B103212046FFF710FAD8
:104D3C00032804D12046BDE81040FFF711BA00202B
:104D4C0010BD704738B5002320254380142304463A
:104D5C000380856005610649284600F031F8044956
:104D6C006060284600F02CF8E060204638BD00BF9B
:104D7C00B4500D0030B50E4D2978BFF35B8F11F098
:104D8C00010487B011D12846FFF781F968B101A859
:104D9C00FFF7D8FF01AA21460648FFF7E3FB284698
:104DAC00FFF77AF9044800F00DF8024807B030BD5F
:104DBC003CE7032040E703204F4D0D00FFF765B99A
:104DCC00FFF761B9002301461A46184600F042B8B5
:104DDC000A44914200F1FF3300D1704710B511F82D
:104DEC00014B03F8014F9142F9D110BD0244034627
:104DFC00934200D1704703F8011BF9E738B50D4B0E
:104E0C001D68AB6B04467BB91820FFF71DFB0A4AE3
:104E1C000A4BA863C0E90023094B83600B238381F1
:104E2C0001220023C0E90423AB6B00221C615A61F0
:104E3C0038BD00BF34E503200E33CDAB34126DE624
:104E4C00ECDE0500034613F8012B002AFBD1181ADF
:104E5C00013870472DE9F843DFF8B8800646D8F8DA
:104E6C0000001F460D46914600F056F8254B1C6875
:104E7C0034B9254C1C60254B13B11B68C4F8883021
:104E8C0063681F2B07DDD8F8000000F047F84FF0DF
:104E9C00FF30BDE8F8834EB3D4F8880088B91C4BBA
:104EAC0023B9D8F8000000F038F8F0E74FF484701C
:104EBC00FFF7CAFA0028F4D00023C0E94033C4F845
:104ECC008800636840F8239001229A4000EB83012C
:104EDC00D0F800311343022EC0F80031C1F88070B5
:104EEC0002BFD0F804311A43C0F804216368D8F823
:104EFC0000005A1C0233626044F8235000F00EF894
:104F0C000020C6E7E0E7032054E703200000000080
:104F1C0055440D0098E5032070477047704700001A
:104F2C001D400D0059400D0081400D0085400D00C5
:104F3C000000000020000000000000000000000045
:104F4C00FB440D00F1440D00E7440D00DD440D0061
:104F5C00D1440D00C5440D00C9460D00D1460D00CD
:104F6C00B9440D00B1440D00A7440D009D440D0043
:104F7C0001470D00000000000000000019450D0065
:104F8C0063450D003B450D001B450D0043450D00D1
:104F9C004B450D0053450D005B450D000000000016
:104FAC0000000000A5450D0095450D0097450D002E
:104FBC0061707000000000000000000089460D00C8
:104FCC0093460D009D460D00A7460D00B1460D0001
:104FDC00BD460D00C9460D00D1460D00D9460D0049
:104FEC00E5460D00ED460D00F7460D0001470D009E
:104FFC0025592D256D2D25645425483A254D3A25E6
:10500C0053257A0061736374696D650000000000BC
:10501C0000000000F5480D0063490D003B490D00F0
:10502C00E9470D000B490D0027490D0019490D00EA
:10503C0035490D00F7480D00FD480D00000000003B
:10504C0000000000EF490D00574A0D002D4A0D00DD
:10505C00E9470D001F4A0D00F1490D00014A0D00F2
:10506C00514A0D00114A0D00E9490D0000000000E5
:10507C00000000004F4B0D00454B0D003B4B0D004D
:10508C00F14A0D002F4B0D00234B0D00C9460D00AE
:10509C00D1460D00174B0D000F4B0D00054B0D00AD
:1050AC00FB4A0D0001470D000000000005410D00FA
:1050BC008D440D0005450D0079460D00D5470D00BA
:1050CC009D480D00BD480D00E1480D00594B0D00E9
:0450DC0000000000D0
:0450E00000000000CC
:1050E40010500D0038E5032000000000000000000F
:1050F40000000000000000000000000000000000AC
:10510400000000000000000000000000000000009B
:10511400000000000000000000000000000000008B
:10512400000000000000000000000000000000007B
:10513400000000000000000000000000000000006B
:0C5144000000000000000000E5E7032070
:10515000FFFFFFFF00000102030405060708090A1C
:105160000B0C0D0E0F101112131415161718191A17
:085170001B1C1D1E1F2028005E
:04517800785634121F
:04000003D000401CCD
:00000001FF
