:02000002D0002C
:1040000000400D003C6C0D00000006000C00050196
:0840100004019A080000000001
:0440180088690D00A6
:1040200009480A49884208B505D0094A824202D0A7
:10403000121A02F001FC0748074A0021121A02F086
:1040400009FC014808BD00BFD4E40320A46B0D00A7
:1040500044E5032044E50320EDE7032070B5074E57
:10406000074C01F033FBA41BA4080025A54200D196
:1040700070BD56F8043B98470135F7E7706B0D00AB
:10408000946B0D0000F0CCBB08B500F015F8BDE84E
:10409000084001F0D3BA00F0EBBD00F0F1BD0078AC
:1040A000B0FA80F04009704701230370704703683D
:1040B000C9B29B68184700002DE9F84F2DED028B1F
:1040C00001F0A4FB682100F0AEFE01F09FFB3B2154
:1040D000FFF7EDFF01F09AFB002100F0A7FE01F0D1
:1040E00095FB06226821012300F087FE01F08EFB7C
:1040F0000368DFF8B0A35B69DFF8ACB39847044608
:1041000001F084FB03685B69984740EA042001F0F2
:10411000DBFF0022D64B02F041F802F037FBCAF871
:10412000000001F073FB03685B699847044601F0E7
:104130006DFB03685B69984740EA042001F0C4FF07
:104140000022CB4B02F02AF802F020FBCBF8000053
:1041500001F05CFB03685B699847044601F056FB7D
:1041600003685B69984740EA042001F0ADFF002234
:10417000BF4B02F013F802F009FBBE4B0646186075
:10418000DBF8000001F0B2FF0446DAF800000D464B
:1041900001F0ACFF80463046894601F0A7FF024699
:1041A0000B4601F0FBFF424606460F464B46404693
:1041B000494601F0F3FF02460B463046394601F00E
:1041C00037FE41EC100B01F009FD204653EC102B9B
:1041D000294602F00DF941EC100B01F041FBA64B12
:1041E00051EC100B002201F0D9FF91A3D3E9002379
:1041F00002F0FEF890A3D3E9002301F017FE02F0CD
:10420000C5FA9E4A1060DAF8000080F0004001F024
:104210006DFF0446DBF800000D4601F067FF954B8B
:1042200080461868894601F061FF02460B4601F09E
:10423000B5FF424606460F464B464046494601F00A
:10424000ADFF02460B463046394601F0F1FD41EC28
:10425000100B01F0C3FC204653EC102B294602F052
:10426000C7F841EC100B01F0FBFA834B844D854EEF
:10427000854CDFF83882854F51EC100B002201F09D
:104280008DFF6BA3D3E9002302F0B2F86CA3D3E94E
:10429000002301F0CDFD02F079FA2B682360306035
:1042A00000F02AFB07EE900A94ED007ADFED786AC1
:1042B000F8EE677AC5ED007A77EEC77A754D87EE2E
:1042C000A67A88ED007A01F0A1FA682100F0ABFD32
:1042D00001F09CFA4321FFF7EAFE01F097FA002172
:1042E00000F0A4FD01F092FA06226821012300F0FB
:1042F00084FD01F08BFA03685B699847044601F07E
:1043000085FA03685B69984740EA042001F0DCFE07
:104310004DA3D3E9002302F06BF802F037FA3860BE
:1043200001F074FA03685B699847044601F06EFA7D
:1043300003685B69984740EA042001F0C5FE42A388
:10434000D3E9002302F054F802F020FA286001F0CB
:104350005DFA03685B699847814601F057FA036884
:104360005B6998470446386801F0C0FE38A3D3E97A
:10437000002301F05DFD02F009FAD5ED007A386006
:10438000B0EE007A77EEC77A44EA0920C5ED007AEC
:1043900001F09AFE2CA3D3E9002302F029F802F0E1
:1043A000F5F901F0A3FE2CA3D3E9002301F040FDB1
:1043B00002F0ECF9384F394B08EE100A18603868F3
:1043C00001F094FE26A3D3E9002301F0E7FE2B4A77
:1043D000044610680D4601F089FE23A3D3E90023AB
:1043E00001F0DCFE02460B462046294601F020FD86
:1043F00002F0CCF938602A4F8146386801F076FE29
:1044000017A3D3E9002301F0C9FE044630680D4626
:1044100001F06CFE14A3D3E9002301F0BFFE0246B5
:104420000B462046294601F003FD41E0AFF3008032
:10443000182D4454FB2109408FC2F5285C8FE23FC0
:1044400048E17A14AE47F93F000000000060604088
:10445000EC51B81E85EBE13F48E17A14AE47E93FE5
:10446000B81E85EB51B8EE3F7B14AE47E17AA43F0E
:104470000000103F54E50320008066407CE50320E7
:1044800088E5032080E503209CE5032064E5032004
:1044900000007A4468E5032090E503206CE50320E2
:1044A00094E503204CE5032050E503208CE5032030
:1044B00002F06CF9284B98ED007AC3F80090274B76
:1044C00038601860264B274DD3ED007AE8EE077A66
:1044D0001320C3ED007A01F069F9044601F028F8D1
:1044E000214900F0F9FD01F023F8002C064630DAEE
:1044F0002D2100F0F5FD61420A22304600F0FFFD5B
:10450000304600F0F0FD01F013F89AED000A0221A8
:1045100000F0DCFE01F00CF8134900F0DDFD01F0C5
:1045200007F89BED000A022100F0D0FE01F000F830
:104530000D4900F0D1FD00F0FBFF95ED000A0221CE
:1045400000F0DEFEBDEC028B3220BDE8F84F00F03B
:10455000AFBB2146D0E700BFA0E5032098E50320CC
:10456000A4E5032054E503209C690D000000000031
:104570002DE9F84F9C4C9D4F2DED068B25460026CE
:104580002368C72B5EDC01F041F9682100F04BFC89
:1045900001F03CF93B21FFF78AFD01F037F90021DA
:1045A00000F044FC01F032F906226821012300F0FA
:1045B00024FC01F02BF903685B699847804601F001
:1045C00025F903685B69984740EA082001F07CFD03
:1045D00032463B4601F0E2FD02F0D8F8844B186009
:1045E00001F014F903685B699847804601F00EF901
:1045F00003685B69984740EA082001F065FD324690
:104600003B4601F0CBFD02F0C1F87A4B186001F097
:10461000FDF803685B699847804601F0F7F8036886
:104620005B69984740EA082001F04EFD3B46324660
:1046300001F0B4FD02F0AAF86F4B18602368013353
:1046400023609DE76D4B9FED6E8A93ED007ADFF856
:10465000C481C7EE087A0FF2881BDBE900ABC3ED1B
:10466000007A684B93ED007AC7EE087AC3ED007AC2
:104670000023236001F0CAF8682100F0D4FB01F0A8
:10468000C5F84321FFF713FD01F0C0F8002100F049
:10469000CDFB01F0BBF806226821012300F0ADFB41
:1046A00001F0B4F80368DFF870915B69984704463D
:1046B00001F0ACF803685B69984740EA042007EE14
:1046C000900AF8EEE77AC8ED007A01F09FF80368E7
:1046D0005B699847044601F099F803685B6998475D
:1046E00040EA042007EE900AF8EEE77AC9ED007A76
:1046F00001F08CF803685B699847044601F086F87E
:1047000003685B69984740EA042007EE900A3E4B35
:10471000D8F800003D4CF8EEE78AC3ED008A01F0BE
:10472000E5FC52465B4601F063FE064620680F46F4
:1047300001F0DCFC02460B463046394601F078FBBE
:1047400002F024F8206009EE900AD9F80000DFF8A2
:10475000CC9001F0CBFC52465B4601F049FE064688
:10476000D9F800000F4601F0C1FC02460B46304666
:10477000394601F05DFB02F009F8254EC9F800004A
:1047800009EE100A306801F0B1FC41EC1A0B18EE8A
:10479000900A01F0ABFC52465B4601F029FE0B4645
:1047A000024651EC1A0B01F043FB01F0EFFF2B68BE
:1047B00030600133C72B07EE900A2B607FF75AAFAA
:1047C00089EE887A84ED007A89EE087A89ED007A9C
:1047D00087EE887A86ED007ABDEC068BBDE8F88F0F
:1047E000000000000060604084E503200000103FEE
:1047F0004CE5032050E5032054E5032044E5032065
:104800000000484348E503206CE5032058E50320F9
:1048100060E5032064E5032068E503205CE50320F0
:104820002DE9F84300F084FE4FF4964100F070FE4D
:10483000002000F069F84FF00009804641F2873609
:104840000027002000F060F8B0EB080461EB0905D8
:10485000AF4208BFA64207D300F06AFE00F05CFE3C
:1048600010B900F095F9ECE700F062FE00F054FE9C
:1048700000F0CCFF00F0A4FA00F0C8FF682100F0BF
:10488000D2FA00F0C3FF6B21FFF711FC00F0BEFF6E
:104890000021FFF70CFC00F0B9FF012100F0C6FA7F
:1048A000FFF766FEBDE8F843142000F001BA0000EF
:1048B00008B50120002100F04FF9064B00221A60D4
:1048C0009A809A71A2F580329A60BDE80840032070
:1048D00000F032B970E5032008B5024B1B685B6C31
:1048E000019308BD4802030008B5024B1B685B68D2
:1048F000019308BD1802030008B5024B1B685B69F1
:10490000019308BD1802030008B5024B1B68DB6D5C
:10491000019308BD1802030008B5024B1B685B68D1
:10492000019308BD2C02030008B5024B1B681B6BEA
:10493000019308BD2C02030008B5024B1B68DB681D
:10494000019308BD2802030008B5024B1B689B6950
:10495000019308BD2802030008B5024B1B68DB6900
:10496000019308BD2802030008B5024B1B681B6AAF
:10497000019308BD2802030008B5024B1B685B6A5F
:10498000019308BD2802030008B5024B1B689B6A0F
:10499000019308BD2802030008B5024B1B68DB6ABF
:1049A000019308BD2802030008B5024B1B681B6B6E
:1049B000019308BD2802030008B5024B1B685B6B1E
:1049C000019308BD2802030008B5024B1B681B6C4D
:1049D000019308BD2802030008B5024B1B681B6D3C
:1049E000019308BD2802030008B5024B1B685B69F0
:1049F000019308BD6402030008B5024B1B689B6865
:104A0000019308BD6802030008B5024B1B68DB6810
:104A1000019308BD6802030008B5024B1B68DB69FF
:104A2000019308BD3002030008B5024B1B681B6AE6
:104A3000019308BD3002030008B5024B1B681B68D8
:104A4000019308BD3C02030008B5024B1B68DB68FC
:104A5000019308BD3C02030008B5024B1B681B69AB
:104A6000019308BD3C02030008B5024B1B685B695B
:104A7000019308BD3C02030008B5024B1B689B690B
:104A8000019308BD3C02030008B5024B1B68DB69BB
:104A9000019308BD3C02030008B5024B1B681B6A6A
:104AA000019308BD3C02030008B5024B1B689B6ADA
:104AB000019308BD3C02030008B5024B1B681B684C
:104AC000019308BD4C02030008B5024B1B685B68EC
:104AD000019308BD4C02030008B5024B1B681B691B
:104AE000019308BD4C02030008B5024B1B685B69CB
:104AF000019308BD4C02030008B5024B1B689B697B
:104B0000019308BD4C02030008B5024B1B68DB692A
:104B1000019308BD4C02030008B5024B1B681B6AD9
:104B2000019308BD4C02030008B5024B1B689B6A49
:104B3000019308BD4C02030008B5024B1B685B687B
:104B4000019308BD2002030008B5024B1B685B6996
:104B5000019308BD2002030008B5024B1B68DB6A05
:104B6000019308BD2002030008B5034B1B68D3F86E
:104B70008830019308BD00002002030008B5034BF4
:104B80001B68D3F89430019308BD00002002030095
:104B900008B5024B1B689B68019308BD44020300E3
:104BA00008B5024B1B68DB6B019308BD4402030090
:104BB00008B5024B1B685B68019308BD4002030007
:104BC00008B5024B1B689B68019308BD40020300B7
:104BD00008B5024B1B68DB68019308BD4002030067
:104BE00008B5024B1B681B69019308BD4002030016
:104BF00008B5024B1B685B69019308BD40020300C6
:104C000008B5024B1B689B69019308BD4002030075
:104C100008B5024B1B68DB69019308BD4002030025
:104C200008B5024B1B681B6A019308BD40020300D4
:104C300008B5024B1B681B6B019308BD40020300C3
:104C400008B5024B1B685B6B019308BD4002030073
:104C500008B5024B1B681B6C019308BD40020300A2
:104C600008B5024B1B685B6C019308BD4002030052
:104C700008B5024B1B681B68019308BD1C020300AA
:104C800008B5024B1B685B68019308BD1C0203005A
:104C900008B5024B1B68DB6B019308BD1C020300C7
:104CA00008B5024B1B685B6C019308BD1C02030036
:104CB0000021FFF749BF0000024800230360FFF70F
:104CC0000BBE00BFA8E50320002240681146FFF795
:104CD000A7BF002240681146FFF7B2BF406800221C
:104CE000FFF7A6BF4068002281F00101FFF790BFE7
:104CF000002340681A461946FFF782BF0023406828
:104D00001A461946FFF774BF002240681146FFF7A4
:104D100067BF002240681146FFF752BF406800227B
:104D20000221FFF755BF002340681A46FFF740BF36
:104D3000024B03225A60024A1A607047ACE5032016
:104D4000A8690D007047F8B5064615460C468F1841
:104D5000BC4206D0336814F8011B9B683046984764
:104D6000F6E72846F8BD007C0022FFF7FDBD007C79
:104D70000021FFF701BE007C0021FFF705BE007C8B
:104D80000021FFF709BE007C0021FFF70DBE10B522
:104D90001421044600F05EFD204610BD10B54FF40E
:104DA0007A73044608460021C4E90113034B2360CB
:104DB00020741146FFF708FE204610BDE4690D007F
:104DC0000023007C1A461946FFF7B6BD7FB50022C6
:104DD0001423CDE90122ADF804300B788DF80830AA
:104DE0004B680393CB680493007C0B7A059301A96D
:104DF000FFF7F2FD07B05DF804FB1FB5003B8DF82F
:104E000000104FF06401039118BF0123694601921D
:104E10008DF80830FFF7DAFF05B05DF804FB007C81
:104E20000022FFF791BDC9B2FFF7F9BF007C002255
:104E3000FFF792BD704710B51821044600F00AFD37
:104E4000204610BDF0B5037D062B8DB00E4600F157
:104E500004074FF0000412D000F1080515F8011DF9
:104E60000A22304600F04BF9AF42044419D0002C1E
:104E7000F4D02E21304600F033F90444EEE72F231E
:104E80006A4639460A208DF80040FFF7ADFD6846B6
:104E900001F00CFD33680246DB68694630469847EE
:104EA000044620460DB0F0BD10B5054B0446112256
:104EB00040F8043B002101F0CDFC204610BD00BFAE
:104EC0000C6A0D000346074A10B543F8042B01F1A4
:104ED000100251F8044B43F8044B9142F9D10A787F
:104EE0001A7010BD0C6A0D0010B59DF8084044EA18
:104EF000032343EA024242EA01610423416003754D
:104F000010BD13B5CB7800938B784A780978FFF7FA
:104F1000EBFF02B010BD0000014B024A1A6070475F
:104F2000B4E50320186A0D00002340681A46FFF715
:104F30003FBE406800220221FFF74ABE00224068BF
:104F40001146FFF73DBE002240681146FFF748BEFC
:104F5000002340681A461946FFF74ABE00234068FE
:104F60001A461946FFF74CBE40680021FFF770BE95
:104F700040680021FFF774BE4068002281F0010103
:104F8000FFF746BE40680022FFF752BE002240688D
:104F90001146FFF755BE002240681146FFF740BE9C
:104FA0002DE9F043002495B016460D460746FFF75D
:104FB0007BFF214618220EA8009401F04BFC4023F1
:104FC000CDE90C3421466B460CAA3046FFF71CFD98
:104FD0000446002846D1024601216868FFF700FE1A
:104FE0000221804622466868FFF7FAFD009E81464E
:104FF0002146002E36D0002934D17368022B03D00D
:105000000A2B0BD0F669F4E7B8F1000F04D07169F0
:1050100038460431FFF775FF4146F3E7B9F1000F59
:1050200001D14946EEE77469102201A801F012FC93
:1050300006238DF8143001AD04F108031834186804
:1050400059682A4603C20833A3421546F7D101A97D
:1050500006A807ADFFF736FF0FCD3C1D0FC42B6828
:105060002370DEE70098FFF7C7FC384615B0BDE8AF
:10507000F0830000024B034A1A6000225A60704716
:10508000B8E50320246A0D00F8B506460D468F18D2
:105090000024BD420CD0336815F8011B9B683046D4
:1050A0009847031E01DB1C44F3E7002C08BF1C4695
:1050B0002046F8BD13B50446084659B1019101F0E8
:1050C000F5FB23680199DB680246204602B0BDE883
:1050D0001040184702B010BD08B5FFF7EBFF08BD40
:1050E00003689B68184738B50D210546FFF7F8FFA0
:1050F0000A2104462846FFF7F3FF204438BD30B5A7
:105100008BB000238DF82430012A98BF0A2209AC05
:105110000D46B1FBF2F101FB125303F0FF03092B23
:1051200094BF30333733DBB2AA4204F8013DEFD9E4
:105130002146FFF7BFFF0BB030BD00002DE9F74F50
:1051400055EC104B06460F4610EE102A10EE100AD2
:105150002B46294601F0BCFA40B153493046FFF7CF
:10516000A9FF8246504603B0BDE8F08F25F0004904
:105170004E4B4FF0FF322046494601F0A9FA48B99C
:105180004A4B4FF0FF322046494601F083FA08B9F6
:105190004749E3E7474B4FF060422046294601F07C
:1051A0008DFA08B14449D9E7444B4FF0604220469C
:1051B000294601F065FA0028F4D100220023204698
:1051C000294601F05DFAD0B12D213046FFF788FF66
:1051D00005F1004382461D463949DFF8EC904FF057
:1051E000000B00204FF000085FFA8BF39F4208D9B4
:1051F00042464B4601F0FCF80BF1010BF4E7824606
:10520000EAE722462B4600F013FE0D46044601F065
:105210009DFA804600F048FF02460B46204629468C
:1052200000F004FE0A2204460D4630464146FFF7D0
:1052300066FF824427B123493046FFF73BFF824493
:10524000DFF884904FF00008013FFFB2FF2F89D0B4
:1052500042464B462046294600F0A0FF04460D4634
:1052600001F04CFAB0F1000B1ADA2D213046FFF7AD
:1052700037FFCBF1000103460A2230460193FFF7C6
:105280003EFF019B18448244584600F01DFF024631
:105290000B462046294600F0C9FD04460D46D3E7DB
:1052A00059460023E8E700BF586A0D00FFFFEF7F73
:1052B0005C6A0D00FFFFEF41606A0D00FFFFEFC168
:1052C0000000E03F646A0D000000244038B5044649
:1052D00010EE100ACDB200F009FF41EC100B294688
:1052E0002046BDE83840FFF729BF38B5C9B20546AA
:1052F000FFF724FF04462846FFF7F5FE204438BD9B
:1053000038B5044610EE100A0D4600F0EFFE41ECF1
:10531000100B29462046BDE83840FFF7E6BF0000E5
:10532000014B00229A607047C0E5032010B5044687
:1053300008462170FFF770FB00236360204610BD14
:10534000054B02221A60054B054A9A60002018603E
:1053500098809871FFF7F0BBDCE50320D0E50320CF
:105360000000FFFF024B1A68024B1A60704700BF33
:10537000D4E40320E0E50320704741747047704790
:1053800008B5007CFFF790FB20EAE07008BD08B587
:10539000007CFFF761FB20EAE07008BD08B5007CE7
:1053A000FFF76AFB40EAE07008BD08B5007CFFF734
:1053B0005BFB40EAE07008BD007CFFF765BB37B5DA
:1053C000457C04462DB1207C03B0BDE83040FFF79A
:1053D0003BBB007C0191FFF767FB00280199F2DCE1
:1053E000284603B030BD10B51421044600F032FA4F
:1053F000204610BD10B54FF0000C0446084611467B
:105400004FF47A72C4E901C2044A22600122207476
:1054100062741A46FFF710FB204610BD8C6A0D001F
:1054200013B50D4C2178BFF35B8F11F0010110D142
:1054300020460191FEF733FE019950B1074B084A0F
:105440000848FFF7D7FF2046FEF72EFE064801F07A
:10545000EDF9044802B010BDE4E503206CE603203A
:10546000E8E50320F0E603207F530D004174704708
:105470007047704708B50021007CFFF73DFB40EA0C
:10548000E07008BD08B50121007CFFF735FB40EA5C
:10549000E07008BD08B5007CFFF726FB20EAE0704D
:1054A00008BD08B5007CFFF717FB20EAE07008BDD7
:1054B00013B50446007C0191FFF716FB0028019903
:1054C00001DC607C20B1207CFFF71EFB20EAE0704D
:1054D00002B010BD007CFFF71FBB10B514210446BD
:1054E00000F0B8F9204610BD10B54FF47A730446A9
:1054F00008460021C4E90113044B236001232074F2
:1055000063741146FFF7D8FA204610BDBC6A0D003F
:10551000007C0022FFF7D8BA007CFFF705BB10B56E
:1055200014220446002101F095F9204610BD000028
:1055300010B50F4C88B003A8FFF7F1FF2178BFF337
:105540005B8F11F001010FD120460191FEF7A7FDFD
:10555000019948B103AA0748FFF7C6FF2046FEF7A6
:10556000A3FD054801F062F9024808B010BD00BF74
:1055700004E7032008E7032071540D00002240686F
:105580001146FFF72DBB002240681146FFF748BBCC
:10559000002240681146FFF753BB40680022FFF726
:1055A00047BB4068002281F00101FFF731BB0023B7
:1055B00040681A461946FFF723BB002340681A4685
:1055C0001946FFF715BB002240681146FFF7F8BAED
:1055D000406800220221FFF7FBBA002340681A4608
:1055E000FFF7E6BA024B04225A60024A1A6070477B
:1055F0001CE70320EC6A0D00014B1860704700BFE8
:10560000DCE4032008B50B4B43B1FFF791FF0368BF
:105610001B699847002801DDAFF30080064B43B1BA
:10562000FFF7FEFE03681B699847002801DDAFF312
:10563000008008BD000000000000000008B5FFF772
:10564000E1FFFFF759F9014B186008BD38E7032067
:105650000548064A064908B5121A01F0EDF8054B4F
:10566000054A1A6008BD00BF00F4032004F40320BB
:10567000A06B0D0000F403201E1C279A07B5002321
:1056800000931A466FF07701FFF778FA03B05DF8E0
:1056900004FB000007B543880A2B08D0502B0BD120
:1056A000094B1B684BB103B05DF804EB1847FFF7DB
:1056B000E5FF03B05DF804FB002300931A466FF08A
:1056C0007701FFF75BFAF4E728E7032010B51248EB
:1056D0000021FFF7E5FA114B1A68114B9A42114B62
:1056E0000CBF012200221A7001D0FFF7B1FFFFF7B3
:1056F000FBF8044601F0B6F80B4B13B12046AFF3AC
:10570000008000210848FFF74BFABDE81040074829
:105710000021FFF729BA00BFF9550D0000F403205E
:105720001E1C279A24E703200000000095560D0058
:10573000232813B502D9002002B010BDA0F10B033D
:10574000022B1AD8174C2178BFF35B8F11F001019F
:105750000BD120460191FEF7A2FC019928B1124815
:10576000FFF7E4FD2046FEF79FFC0F4B1878FFF78C
:105770005BF90028DFD10120DEE7012809D800F01D
:1057800045F80021007CFFF717F980F00100C0B256
:10579000D2E709380128EED8FFF742FE007CFFF778
:1057A0007BF9F2E72CE7032030E703200D2810B542
:1057B00004469CBF0E34A4B22046FFF7B9FF50B197
:1057C00003212046FFF7A8F8032804D12046BDE8AE
:1057D0001040FFF7A9B8002010BD704738B500236E
:1057E0002025438014230446038085600561064913
:1057F000284600F031F804496060284600F02CF893
:10580000E060204638BD00BF206B0D0030B50E4D66
:105810002978BFF35B8F11F0010487B011D12846BE
:10582000FEF73DFC68B101A8FFF7D8FF01AA2146A9
:105830000648FFF7B3FA2846FEF736FC044800F0A6
:10584000F5FF024807B030BD3CE7032040E70320E6
:10585000DB570D00FEF721BCFEF71DBC0000000069
:105860002DE9F84F55EC104BCD4B25F000469E42EC
:10587000AA460DDDCB4B9E4200F3B58000F0B08010
:10588000BAF1000F40F3F6809FEDA90BBDE8F88F49
:10589000C54B9E4200F3C380A3F1DE739E4240F3EA
:1058A000AC804FF0FF3B22462B462046294600F0B5
:1058B00075FC02460B468046894600F06FFC9EA3AD
:1058C000D3E9002306460F4600F068FC9CA3D3E909
:1058D000002300F0ADFA32463B4600F05FFC9AA38D
:1058E000D3E9002300F0A4FA32463B4600F056FC10
:1058F00097A3D3E9002300F09BFA32463B4600F021
:105900004DFC95A3D3E9002300F092FA32463B46C2
:1059100000F044FC92A3D3E9002300F089FA424648
:105920004B4600F03BFC90A3D3E900238046894618
:105930003046394600F032FC8DA3D3E9002300F055
:1059400075FA32463B4600F029FC8BA3D3E90023CD
:1059500000F06CFA32463B4600F020FC88A3D3E905
:10596000002300F063FA32463B4600F017FC86A3A2
:10597000D3E9002300F05AFA32463B4600F00EFC11
:10598000BBF1FF3F02460B4678D04046494600F047
:105990004FFA864E22462B4600F000FC844B06EB65
:1059A000CB064FEACB0B9B44DBE9002300F03EFA29
:1059B00022462B4600F03AFA02460B46D6E9000191
:1059C00000F034FABAF1000F41EC100B13DA10EECC
:1059D000901A024601F1004343EC102BBDE8F88F0A
:1059E000002C3FF44DAF22462B462046294600F0BE
:1059F0001FFA41EC100BBDE8F88F65A3D3E9002333
:105A000010EE100A294600F013FA6A4B002200F04B
:105A100055FE00283FF445AF45EC104BEBE700F096
:105A2000D3F8654B9E4255EC104B39DCA3F550235F
:105A30009E4262DC10EE102A10EE100A2B46294618
:105A400000F0F6F95B4B002200F0F0F900224FF075
:105A5000804306460F462046294600F0E9F90246F3
:105A60000B463046394600F0C3FC4FF0000B0446AD
:105A70000D4618E79FED480BBDE8F88F40464946B4
:105A800000F0D6F922462B4600F088FB02460B4672
:105A90002046294600F0CAF941EC100BBDE8F88F0A
:105AA000464B9E421DDA10EE100A454B0022294655
:105AB00000F0BCF9424B06460F460022204629461C
:105AC00000F06CFB3B4B002200F0B2F902460B46A3
:105AD0003046394600F08CFC4FF0020B04460D4670
:105AE000E1E62B4610EE102A3649002000F080FC3B
:105AF0004FF0030B04460D46D5E610EE100A2D4B71
:105B00000022294600F092F92A4B002206460F4651
:105B10002046294600F08CF902460B4630463946AD
:105B200000F066FC4FF0010B04460D46BBE600BFDB
:105B3000182D4454FB21F93F11DA22E33AAD903F8E
:105B4000EB0D76244B7BA93F513DD0A0660DB13FB4
:105B50006E204CC5CD45B73FFF8300922449C23F1C
:105B60000D5555555555D53F2F6C6A2C44B4A2BFE1
:105B70009AFDDE522DDEAD3F6D9A74AFF2B0B33FA9
:105B8000711623FEC671BC3FC4EB98999999C93F21
:105B90009C7500883CE4377E182D4454FB21F9BFE6
:105BA000FFFF0F440000F07FFFFFDB3F286B0D007D
:105BB000486B0D000000F03FFFFFF23F0080034004
:105BC0000000F83F0000F0BF51EC100B10EE102A5F
:105BD00021F0004343EC102B704700BF2DE9F04348
:105BE0002DED028B8BB055EC104B00F055F8284B87
:105BF000B0EE408AF0EE608A93F900707B1C12D000
:105C000022462B462046294600F062FD064650B942
:105C10004FF000084FF000092046294642464B4607
:105C200000F02EFD40B9B0EE480AF0EE680A0BB065
:105C3000BDEC028BBDE8F083164B08960122CDE93E
:105C40000445CDE902450092019397B142464B4687
:105C50004046494600F0CCFB022FCDE906010AD1AF
:105C6000FFF716F821230360089B63B99DED068BAF
:105C7000D9E7CDE90689684600F0D2F80028EFD0D0
:105C8000089B002BF2D0FFF703F8089B0360EDE7B9
:105C9000D8E40320686B0D002DE9F0415F4A57EC12
:105CA000106BBA4300F09880002F10EE104A3B466C
:105CB0004EDD39155BD0C3F31303CA0743F48013D9
:105CC000A1F2FF3E03D45B0003EBD4736400E20F48
:105CD0004FF0000C02EB43034FEA6E0E6400664681
:105CE00016254FF40012B118994202DC5B1A8E1887
:105CF00094445B00013D03EBD4734FEA52024FEA38
:105D00004404F0D12F4620204FF0004209E03ED05D
:105D1000E10F01384FEA520201EB43034FEA44041A
:105D20003ED0B34202EB0501F1DD002901EB020593
:105D300009DBB0469B1BA14288BF03F1FF33641A05
:105D400017444646E4E7002DF3DB06F10108F1E7CE
:105D500027F00042324336D0002F4DD13946E20AB7
:105D6000153964051346002AF9D0D70251D4002012
:105D70005B00DE02054600F10100F9D51A46234614
:105D80008440C0F12000C3401343491B93E7A14264
:105D9000BED8002901EB0205D5DB98460023CEE7EB
:105DA000234312D178084FEA6C0101F17F511CF0B6
:105DB000010F01F5001118BF40F0004001EB0E5338
:105DC000024643EC102BBDE8F0817B1C16BF781C0B
:105DD0000CF1010C4008E6E710EE102A10EE100A54
:105DE0003B46394600F0DAF932463B4600F020F8EF
:105DF00041EC100BBDE8F08110EE102A3046394618
:105E000000F014F802460B4600F0F2FA41EC100BD9
:105E1000D9E7234620204FF0FF35B4E70000F07F9C
:105E20000020704781F0004102E000BF83F0004392
:105E300030B54FEA41044FEA430594EA050F08BF25
:105E400090EA020F1FBF54EA000C55EA020C7FEAE9
:105E5000645C7FEA655C00F0E2804FEA5454D4EB66
:105E60005555B8BF6D420CDD2C4480EA020281EA30
:105E7000030382EA000083EA010180EA020281EA68
:105E80000303362D88BF30BD11F0004F4FEA0131BA
:105E90004FF4801C4CEA113102D0404261EB4101C9
:105EA00013F0004F4FEA03334CEA133302D052424F
:105EB00063EB430394EA050F00F0A780A4F101040B
:105EC000D5F1200E0DDB02FA0EFC22FA05F2801845
:105ED00041F1000103FA0EF2801843FA05F359412B
:105EE0000EE0A5F120050EF1200E012A03FA0EFCAA
:105EF00028BF4CF0020C43FA05F3C01851EBE371D4
:105F000001F0004507D54FF0000EDCF1000C7EEBF0
:105F100000006EEB0101B1F5801F1BD3B1F5001F2E
:105F20000CD349085FEA30004FEA3C0C04F101044D
:105F30004FEA445212F5800F80F09A80BCF1004F76
:105F400008BF5FEA500C50F1000041EB045141EAF8
:105F5000050130BD5FEA4C0C404141EB0101013CC1
:105F600028BFB1F5801FE9D291F0000F04BF0146B0
:105F70000020B1FA81F308BF2033A3F10B03B3F182
:105F800020020CDA0C3208DD02F1140CC2F10C0212
:105F900001FA0CF021FA02F10CE002F11402D8BF70
:105FA000C2F1200C01FA02F120FA0CFCDCBF41EA3C
:105FB0000C019040E41AA2BF01EB0451294330BD0B
:105FC0006FEA04041F3C1CDA0C340EDC04F11404E8
:105FD000C4F1200220FA04F001FA02F340EA0300BF
:105FE00021FA04F345EA030130BDC4F10C04C4F105
:105FF000200220FA02F001FA04F340EA03002946E5
:1060000030BD21FA04F0294630BD94F0000F83F42E
:10601000801306BF81F480110134013D4EE77FEA11
:10602000645C18BF7FEA655C29D094EA050F08BF5D
:1060300090EA020F05D054EA000C04BF194610463E
:1060400030BD91EA030F1EBF0021002030BD5FEA82
:10605000545C05D14000494128BF41F0004130BDAA
:1060600014F580043CBF01F5801130BD01F00045FE
:1060700045F0FE4141F470014FF0000030BD7FEA71
:10608000645C1ABF194610467FEA655C1CBF0B466C
:10609000024650EA013406BF52EA033591EA030F83
:1060A00041F4002130BD00BF90F0000F04BF00217B
:1060B000704730B54FF4806404F132044FF00005AE
:1060C0004FF0000150E700BF90F0000F04BF002127
:1060D000704730B54FF4806404F1320410F000458D
:1060E00048BF40424FF000013EE700BF42004FEA88
:1060F000E2014FEA31014FEA02701FBF12F07F4305
:1061000093F07F4F81F06051704732F07F4208BFBB
:10611000704793F07F4F04BF41F40021704730B5C2
:106120004FF4607401F0004521F000411CE700BF0E
:1061300050EA010208BF704730B54FF000050AE091
:1061400050EA010208BF704730B511F0004502D592
:10615000404261EB41014FF4806404F132045FEA94
:10616000915C3FF4D8AE4FF003025FEADC0C18BF3D
:1061700003325FEADC0C18BF033202EBDC02C2F12F
:10618000200300FA03FC20FA02F001FA03FE40EAC1
:106190000E0021FA02F11444BDE600BF70B54FF0C5
:1061A000FF0C4CF4E06C1CEA11541DBF1CEA1355A3
:1061B00094EA0C0F95EA0C0F00F0DEF82C4481EA0B
:1061C000030621EA4C5123EA4C5350EA013518BF2B
:1061D00052EA033541F4801143F4801338D0A0FB18
:1061E00002CE4FF00005E1FB02E506F00042E0FBC5
:1061F00003E54FF00006E1FB03569CF0000F18BFCB
:106200004EF0010EA4F1FF04B6F5007F64F5407472
:1062100004D25FEA4E0E6D4146EB060642EAC62105
:1062200041EA55514FEAC52040EA5E504FEACE2E72
:10623000B4F1FD0C88BFBCF5E06F1ED8BEF1004F75
:1062400008BF5FEA500E50F1000041EB045170BDF1
:1062500006F0004646EA010140EA020081EA030135
:10626000B4EB5C04C2BFD4EB0C0541EA045170BD31
:1062700041F480114FF0000E013C00F3AB8014F1AB
:10628000360FDEBF002001F0004170BDC4F10004F4
:10629000203C35DA0C341BDC04F11404C4F1200575
:1062A00000FA05F320FA04F001FA05F240EA0200D0
:1062B00001F0004221F0004110EBD37021FA04F606
:1062C00042EB06015EEA430E08BF20EAD37070BDC0
:1062D000C4F10C04C4F1200500FA04F320FA05F01F
:1062E00001FA04F240EA020001F0004110EBD37021
:1062F00041F100015EEA430E08BF20EAD37070BD91
:10630000C4F1200500FA05F24EEA020E20FA04F369
:1063100001FA05F243EA020321FA04F001F0004118
:1063200021FA04F220EA020000EBD3705EEA430E89
:1063300008BF20EAD37070BD94F0000F0FD101F0B8
:106340000046400041EB010111F4801F08BF013CF1
:10635000F7D041EA060195F0000F18BF704703F02F
:106360000046520043EB030313F4801F08BF013DB6
:10637000F7D043EA0603704794EA0C0F0CEA135572
:1063800018BF95EA0C0F0CD050EA410618BF52EA2C
:106390004306D1D181EA030101F000414FF0000032
:1063A00070BD50EA410606BF1046194652EA430640
:1063B00019D094EA0C0F02D150EA013613D195EAB4
:1063C0000C0F05D152EA03361CBF104619460AD1FC
:1063D00081EA030101F0004141F0FE4141F4700106
:1063E0004FF0000070BD41F0FE4141F4780170BDF6
:1063F00070B54FF0FF0C4CF4E06C1CEA11541DBF5B
:106400001CEA135594EA0C0F95EA0C0F00F0A7F85C
:10641000A4EB050481EA030E52EA03354FEA013189
:1064200000F088804FEA03334FF0805545EA13139C
:1064300043EA12634FEA022245EA111545EA106564
:106440004FEA00260EF000419D4208BF964244F1FB
:10645000FD0404F5407402D25B084FEA3202B61A1A
:1064600065EB03055B084FEA32024FF480104FF4EE
:10647000002CB6EB020E75EB030E22BFB61A754662
:1064800040EA0C005B084FEA3202B6EB020E75EBF5
:10649000030E22BFB61A754640EA5C005B084FEA5D
:1064A0003202B6EB020E75EB030E22BFB61A75462A
:1064B00040EA9C005B084FEA3202B6EB020E75EB35
:1064C000030E22BFB61A754640EADC0055EA060EF6
:1064D00018D04FEA051545EA16754FEA06164FEA39
:1064E000C30343EA52734FEAC2025FEA1C1CC0D1E5
:1064F00011F4801F0BD141EA00014FF000004FF072
:10650000004CB6E711F4801F04BF01430020B4F132
:10651000FD0C88BFBCF5E06F3FF6AFAEB5EB030CEA
:1065200004BFB6EB020C5FEA500C50F1000041EBE7
:10653000045170BD0EF0004E4EEA113114EB5C04B4
:10654000C2BFD4EB0C0541EA045170BD41F4801187
:106550004FF0000E013C90E645EA060E8DE60CEA8F
:10656000135594EA0C0F08BF95EA0C0F3FF43BAFAC
:1065700094EA0C0F0AD150EA01347FF434AF95EA63
:106580000C0F7FF425AF104619462CE795EA0C0F47
:1065900006D152EA03353FF4FDAE1046194622E714
:1065A00050EA410618BF52EA43067FF4C5AE50EAEE
:1065B00041047FF40DAF52EA43057FF4EBAE12E7DE
:1065C0004FF0FF3C06E000BF4FF0010C02E000BFBF
:1065D0004FF0010C4DF804CD4FEA410C7FEA6C5CA2
:1065E0004FEA430C18BF7FEA6C5C1BD001B050EA45
:1065F000410C0CBF52EA430C91EA030F02BF90EA30
:10660000020F0020704710F1000F91EA030F58BFEE
:10661000994208BF90422CBFD8176FEAE37040F050
:10662000010070474FEA410C7FEA6C5C02D150EAEE
:10663000013C07D14FEA430C7FEA6C5CD6D152EAA9
:10664000033CD3D05DF8040B704700BF844610466E
:1066500062468C461946634600E000BF01B5FFF76D
:10666000B7FF002848BF10F1000F01BD4DF808ED3D
:10667000FFF7F4FF0CBF012000205DF808FB00BF0E
:106680004DF808EDFFF7EAFF34BF012000205DF868
:1066900008FB00BF4DF808EDFFF7E0FF94BF0120B5
:1066A00000205DF808FB00BF4DF808EDFFF7CEFFB6
:1066B00094BF012000205DF808FB00BF4DF808EDF5
:1066C000FFF7C4FF34BF012000205DF808FB00BFC6
:1066D0004FEA410C7FEA6C5C02D150EA013C0AD1DE
:1066E0004FEA430C7FEA6C5C02D152EA033C02D1D0
:1066F0004FF0000070474FF0010070474FEA410231
:1067000012F5001215D211D56FF47873B3EB625203
:1067100012D94FEAC12343F0004343EA505311F02A
:10672000004F23FA02F018BF404270474FF00000BC
:10673000704750EA013005D111F0004008BF6FF0FA
:10674000004070474FF00000704700BF4A0011D270
:1067500012F5001211D20DD56FF47873B3EB6252BB
:106760000ED44FEAC12343F0004343EA505323FAC7
:1067700002F070474FF00000704750EA013002D13C
:106780004FF0FF3070474FF0000070474FEA410272
:10679000B2F1E04324BFB3F5001CDCF1FE5C0DD97F
:1067A00001F0004C4FEAC0024CEA5070B2F1004FC9
:1067B00040EB830008BF20F00100704711F0804FCC
:1067C00021D113F13872BCBF01F00040704741F491
:1067D00080114FEA5252C2F11802C2F1200C10FA95
:1067E0000CF320FA02F018BF40F001004FEAC12379
:1067F0004FEAD32303FA0CFC40EA0C0023FA02F31D
:106800004FEA4303CCE77FEA625307D150EA0133F2
:106810001EBF4FF0FE4040F44000704701F00040C2
:1068200040F0FE4040F40000704700BF00230146E6
:106830001A46184600F042B80A44914200F1FF336C
:1068400000D1704710B511F8014B03F8014F914288
:10685000F9D110BD02440346934200D1704703F8BA
:10686000011BF9E738B50D4B1D68AB6B04467BB9CE
:106870001820FEF7FDF90A4A0A4BA863C0E9002375
:10688000094B83600B23838101220023C0E9042389
:10689000AB6B00221C615A6138BD00BFDCE40320F1
:1068A0000E33CDAB34126DE6ECDE0500034613F873
:1068B000012B002AFBD1181A013870472DE9F84343
:1068C000DFF8B8800646D8F800001F460D4691460E
:1068D00000F056F8254B1C6834B9254C1C60254B3C
:1068E00013B11B68C4F8883063681F2B07DDD8F824
:1068F000000000F047F84FF0FF30BDE8F8834EB3DA
:10690000D4F8880088B91C4B23B9D8F8000000F0EF
:1069100038F8F0E74FF48470FEF7AAF90028F4D0B5
:106920000023C0E94033C4F88800636840F823902E
:1069300001229A4000EB8301D0F800311343022E6C
:10694000C0F80031C1F8807002BFD0F804311A439A
:10695000C0F804216368D8F800005A1C0233626052
:1069600044F8235000F00EF80020C6E7E0E70320CB
:1069700054E7032000000000714C0D0040E50320A7
:10698000704770477047000021400D005D400D00CA
:1069900085400D0089400D0000000000200000002F
:1069A0000000000000000000274D0D001D4D0D00EF
:1069B000134D0D00094D0D00FD4C0D00F14C0D0067
:1069C000694F0D00714F0D00E54C0D00DD4C0D00C1
:1069D000D34C0D00C94C0D00A14F0D00000000006C
:1069E00000000000454D0D008F4D0D00674D0D005E
:1069F000474D0D006F4D0D00774D0D007F4D0D0083
:106A0000874D0D000000000000000000454E0D0005
:106A1000354E0D00374E0D00617070000000000013
:106A200000000000294F0D00334F0D003D4F0D00B9
:106A3000474F0D00514F0D005D4F0D00694F0D0088
:106A4000714F0D00794F0D00854F0D008D4F0D00DA
:106A5000974F0D00A14F0D006E616E00696E6600CC
:106A60006F7666002E0025592D256D2D2564542541
:106A7000483A254D3A2553257A0061736374696D50
:106A800065000000000000000000000079530D00C8
:106A9000E7530D00BF530D0089500D008F530D00BB
:106AA000AB530D009D530D00B9530D007B530D00EA
:106AB00081530D00000000000000000073540D0021
:106AC000DB540D00B1540D0089500D00A3540D008E
:106AD00075540D0085540D00D5540D0095540D00CE
:106AE0006D540D000000000000000000DB550D009B
:106AF000D1550D00C7550D007D550D00BB550D003E
:106B0000AF550D00694F0D00714F0D00A3550D00DD
:106B10009B550D0091550D0087550D00A14F0D009F
:106B200000000000000000004FBB610567ACDD3FC6
:106B3000182D4454FB21E93F9BF681D20B73EF3FA4
:106B4000182D4454FB21F93FE2652F227F2B7A3C1C
:106B5000075C143326A6813CBDCBF07A8807703CD5
:106B6000075C143326A6913C737172740000000018
:106B7000B1480D00B94C0D00314D0D00194F0D00FD
:106B800075500D0021530D0041530D0065530D004C
:106B9000E5550D00000000000000000000000000AE
:046BA00000000000F1
:106BA4007A6A0D0001000000E0E403200000000008
:106BB40000000000000000000000000000000000D1
:106BC40000000000000000000000000000000000C1
:106BD40000000000000000000000000000000000B1
:106BE40000000000000000000000000000000000A1
:106BF4000000000000000000000000000000000091
:106C0400000000000000000000000000E5E7032091
:106C1400FFFFFFFF00000102030405060708090A3D
:106C24000B0C0D0E0F101112131415161718191A38
:086C34001B1C1D1E1F2028007F
:046C3C007856341240
:04000003D0004020C9
:00000001FF
