:02000004080AE8
:1000000000000A0838110A08000006000600050171
:0800100004029A080000000040
:04001800240F0A089F
:10001C0009480A4908B5884205D0094A824202D0EB
:10002C00121A00F0CFFE0748074A0021121A00F0FE
:10003C00D7FE064808BD00BF00000020A4100A0827
:10004C006C0000206C000020E9050020E905002070
:10005C0070B500F0CFFD0025054E064CA41BA4087E
:10006C00A54200D170BD56F8043B98470135F7E71F
:10007C0074100A0894100A0800F013B808B500F0C0
:10008C0019F8BDE8084000F06DBD00F0D9B900F0DA
:10009C00DFB90078B0FA80F0400970470123037093
:1000AC00704708B500F06AFCBDE808404FF41651E3
:1000BC0000F04ABC38B50A2000F018FE044600F0E7
:1000CC005DFC0D4900F016FB00F058FC002C0546B9
:1000DC000FDA2D2100F012FB61420A22284600F0B3
:1000EC001CFB284600F00DFBBDE83840012000F059
:1000FC00BFB92146F1E700BF380F0A0808B5012047
:10010C00002100F019F90022054B03201A609A8097
:10011C009A71A2F580329A60BDE8084000F0FCB8F4
:10012C006C00002008B5024B1B685B6C019308BD8A
:10013C00D001060808B5024B1B689B6C019308BDE7
:10014C00D001060808B5024B1B685B68019308BD1B
:10015C009C01060808B5024B1B685B69019308BD3E
:10016C009C01060808B5024B1B685B68019308BD2F
:10017C00B001060808B5024B1B681B6B019308BD48
:10018C00B001060808B5024B1B681B6E019308BD35
:10019C00AC01060808B5024B1B685B6E019308BDE9
:1001AC00AC01060808B5024B1B689B6E019308BD99
:1001BC00AC01060808B5024B1B68DB6E019308BD49
:1001CC00AC01060808B5024B1B681B6F019308BDF8
:1001DC00AC01060808B5024B1B685B6F019308BDA8
:1001EC00AC01060808B5034B1B68D3F880300193AB
:1001FC0008BD0000AC01060808B5024B1B68DB69A2
:10020C00019308BDB401060808B5024B1B681B6AB4
:10021C00019308BDB401060808B5024B1B689B6925
:10022C00019308BDC401060808B5024B1B685B6A44
:10023C00019308BDC401060808B5024B1B689B6AF4
:10024C00019308BDC401060808B5024B1B68DB6AA4
:10025C00019308BDC401060808B5024B1B681B6B53
:10026C00019308BDC401060808B5024B1B685B6B03
:10027C00019308BDC401060808B5024B1B689B6BB3
:10028C00019308BDC401060808B5024B1B681B6C22
:10029C00019308BDC401060808B5024B1B681B6816
:1002AC00019308BDD801060808B5024B1B685B68B2
:1002BC00019308BDD801060808B5024B1B681B69E1
:1002CC00019308BDD801060808B5024B1B685B6991
:1002DC00019308BDD801060808B5024B1B689B6941
:1002EC00019308BDD801060808B5024B1B68DB69F1
:1002FC00019308BDD801060808B5024B1B681B6AA0
:10030C00019308BDD801060808B5024B1B689B6C0D
:10031C00019308BDC001060808B5024B1B685B6859
:10032C00019308BDA401060808B5024B1B685B6964
:10033C00019308BDA401060808B5024B1B68DB6AD3
:10034C00019308BDA401060808B5034B1B68D3F83C
:10035C009030019308BD0000A401060808B5034BBA
:10036C001B68D3F89C30019308BD0000A40106085B
:10037C0008B5024B1B68DB6B019308BDCC0106086A
:10038C0008B5024B1B685B68019308BDC8010608E1
:10039C0008B5024B1B689B68019308BDC801060891
:1003AC0008B5024B1B68DB68019308BDC801060841
:1003BC0008B5024B1B681B69019308BDC8010608F0
:1003CC0008B5024B1B685B69019308BDC8010608A0
:1003DC0008B5024B1B689B69019308BDC801060850
:1003EC0008B5024B1B68DB69019308BDC801060800
:1003FC0008B5024B1B681B6A019308BDC8010608AF
:10040C0008B5024B1B681B6B019308BDC80106089D
:10041C0008B5024B1B685B6B019308BDC80106084D
:10042C0008B5024B1B681B6C019308BDC80106087C
:10043C0008B5024B1B685B6C019308BDC80106082C
:10044C0008B5024B1B681B68019308BDA001060888
:10045C0008B5024B1B685B68019308BDA001060838
:10046C0008B5024B1B685B6C019308BDA001060824
:10047C000021FFF759BF7047F8B5064615460C46E4
:10048C008F18BC4206D0336830469B6814F8011BA9
:10049C009847F6E72846F8BD0022007CFFF772BEAD
:1004AC000021007CFFF776BE0021007CFFF77ABEAE
:1004BC000021007CFFF77EBE0021007CFFF782BE8E
:1004CC0010B50446142100F073FC204610BD00004A
:1004DC0010B54FF47A73044608460021C4E90113A1
:1004EC00034B114623602074FFF77CFE204610BDA1
:1004FC00440F0A08704710B50446182100F058FC48
:10050C00204610BDF8B50E46002400F10807051D65
:10051C0017F8011D0A22304600F0FFF8AF420444E0
:10052C0001D12046F8BD002CF2D02E21304600F02F
:10053C00E5F80444ECE7000010B50446044B112226
:10054C00002140F8043B00F04BFC204610BD00BFDE
:10055C006C0F0A080346074A10B543F8042B01F147
:10056C00100251F8044B914243F8044BF9D10A782C
:10057C001A7010BD6C0F0A08024AC0E9002104224F
:10058C00027570476C0F0A0810B59DF8084044EAD4
:10059C000324042344EA024444EA016444600375DE
:1005AC0010BD000037B5044D05609DF8185000953E
:1005BC00FFF7EAFF03B030BD6C0F0A08014B024A8B
:1005CC001A60704778000020780F0A0800234068F2
:1005DC001A46FFF7D5BE002202214068FFF7E0BEA5
:1005EC00002240681146FFF7D3BE00224068114636
:1005FC00FFF7DEBE002340681A461946FFF7E0BE3F
:10060C00002340681A461946FFF7E2BE00214068F5
:10061C00FFF706BF00214068FFF70ABF00224068C1
:10062C0081F00101FFF7DCBE00224068FFF7E8BE55
:10063C00002240681146FFF7EBBE002240681146CD
:10064C00FFF7D6BE70B515468EB0044608A8FFF766
:10065C0073FF1122002103A800F0C2FB00262846DC
:10066C0000F0EAFB0A4B009681B25B68284603AAAD
:10067C00FFF74AFE30B131462046FFF77DFF20469A
:10068C000EB070BD204603A9FFF764FFF7E700BF6B
:10069C00FC040020024B034A1A6000225A60704787
:1006AC007C000020840F0A08F8B506460D4600248D
:1006BC008F18BD420CD0336830469B6815F8011B6F
:1006CC009847031E01DB1C44F3E7002C08BF1C46B3
:1006DC002046F8BD70B505460C46084649B100F0F9
:1006EC00ABFB2B68024621462846BDE87040DB6810
:1006FC00184770BD08B5FFF7EDFF08BD03689B6890
:10070C00184738B50D210546FFF7F8FF0A210446B6
:10071C002846FFF7F3FF204438BD0023012A98BF79
:10072C000A2230B58BB00C468DF8243009A9254629
:10073C00B4FBF2F404FB1253DBB2092B94BF30333D
:10074C003733DBB2AA4201F8013DF0D9FFF7C2FF03
:10075C000BB030BD0022014B9A6070478400002022
:10076C0070B5002604460D4640F8086FFFF7DAFC1A
:10077C0028462570FFF740FD2046666070BD0000DE
:10078C0002220020044B1A60044B054A1860988022
:10079C0098719A60FFF7C0BDA00000209400002063
:1007AC000000FFFF024B1A68024B1A60704700BF33
:1007BC0000000020A400002070474174704770476F
:1007CC0008B5007CFFF760FD20EAE07008BD08B5B5
:1007DC00007CFFF731FD20EAE07008BD08B5007C15
:1007EC00FFF73AFD40EAE07008BD08B5007CFFF762
:1007FC002BFD40EAE07008BD007CFFF735BD70B5FD
:10080C00467C04460D462EB12946207CBDE870403E
:10081C00FFF70ABD007CFFF737FD0028F4DC3046FB
:10082C0070BD10B50446142100F0C2FA204610BD6C
:10083C004FF0000C10B50446084611464FF47A727E
:10084C00C4E901C2044A20742260012262741A466F
:10085C00FFF7E2FC204610BDDC0F0A0838B50C4D42
:10086C002978BFF35B8F11F001040FD12846FFF7F5
:10087C0010FC58B12146074B074A0848FFF7D8FF30
:10088C002846FFF70BFC064800F096FA034838BDE3
:10089C00A800002030010020AC000020B401002092
:1008AC00CB070A08417470477047704708B50021A0
:1008BC00007CFFF711FD40EAE07008BD08B501218E
:1008CC00007CFFF709FD40EAE07008BD08B5007C2C
:1008DC00FFF7FAFC20EAE07008BD08B5007CFFF7D2
:1008EC00EBFC20EAE07008BD38B50446007C0D46F0
:1008FC00FFF7EAFC002801DC607C28B12946207C4B
:10090C00FFF7F2FC20EAE07038BD007CFFF7F4BC86
:10091C0010B50446142100F04BFA204610BD704768
:10092C0010B54FF47A73044608460021C4E901134C
:10093C00044B20742360012311466374FFF7ACFC55
:10094C00204610BD0C100A080022007CFFF7ACBC3E
:10095C0010B504461422002100F042FA054B204643
:10096C006360054BE36040F20113238181232382F2
:10097C0010BD00BFF8010020F902002030B50E4D6B
:10098C0087B001A8FFF7E4FF2978BFF35B8F11F064
:10099C0001040ED12846FFF77CFB50B1214601AA79
:1009AC000648FFF7BDFF2846FFF778FB044800F028
:1009BC0003FA024807B030BDC8010020D001002066
:1009CC00B5080A0810B504461422002100F008FAF4
:1009DC00054B20466360054BE36040F20113238115
:1009EC008123238210BD00BF7A0300207B040020EA
:1009FC0010B50E4C86B001A8FFF7E4FF2378BFF3C7
:100A0C005B8FDB070ED42046FFF743FB50B101216F
:100A1C0001AA0748FFF784FF2046FFF73FFB054874
:100A2C0000F0CAF9024806B010BD00BFCC0100208E
:100A3C00E40100202B090A08002240681146FFF748
:100A4C00B7BCF0B5154689B011220E4604460021FC
:100A5C0003A800F0C5F9284600F0EEF9002781B292
:100A6C0073682846009703AAFFF74EFC30B139464D
:100A7C002046FFF781FD204609B0F0BD204603A9B2
:100A8C00FFF768FDF7E7002240681146FFF7B0BC9E
:100A9C00002240681146FFF7BBBC00224068FFF7FC
:100AAC00AFBC0022406881F00101FFF799BC002324
:100ABC0040681A461946FFF78BBC002340681A465B
:100ACC001946FFF77DBC002240681146FFF760BC59
:100ADC00002202214068FFF763BC002340681A46DD
:100AEC00FFF74EBC0422024B5A60024A1A60704750
:100AFC00FC0400203C100A08014B1860704700BF32
:100B0C000400002008B5134B43B1FFF737FF03680F
:100B1C001B699847002801DDAFF300800E4B43B1F1
:100B2C00FFF79CFE03681B699847002801DDAFF3B3
:100B3C0000800A4B0BB1AFF30080094B43B1FFF7B8
:100B4C0057FF03681B699847002801DDAFF300804D
:100B5C0008BD00BF00000000000000000000000005
:100B6C000000000008B5FFF7CDFFFFF7F3FA014BCB
:100B7C00186008BD1C0500200548064A08B5121A65
:100B8C00054900F01FF9054B054A1A6008BD00BF66
:100B9C000040024004400240A0100A0800400240FD
:100BAC001E1C279A002307B51A466FF07701009395
:100BBC00FFF7D4FB03B05DF804FB000007B54388D6
:100BCC000A2B08D0502B0BD1094B1B684BB103B02F
:100BDC005DF804EB1847FFF7E5FF03B05DF804FB85
:100BEC0000231A466FF077010093FFF7B7FBF4E789
:100BFC0008050020002110B51148FFF731FC114BFE
:100C0C001A68114B9A420CBF012200220F4B1A702A
:100C1C0001D0FFF7B1FFFFF795FA044600F0E8F8B2
:100C2C000B4B13B12046AFF3008000210848FFF7AF
:100C3C009FFBBDE8104000210648FFF785BB00BFB5
:100C4C00050B0A08004002401E1C279A04050020D0
:100C5C0000000000C90B0A08024B986808B1FFF7A6
:100C6C0069BA704710050020172870B5044601D9E1
:100C7C00002070BDA0F10D03022B0BD9012824D844
:100C8C0000F064F80021007CFFF7A4FA80F001006A
:100C9C00C0B2EEE7124E3178BFF35B8F11F0010555
:100CAC000DD13046FFF7F5F948B129460D48FFF74D
:100CBC0057FD3046FFF7F2F90B4800F07DF8094B71
:100CCC001878FFF7A1FA0028D2D1123C012C05D8D4
:100CDC00FFF7C4FD007CFFF7CFFAD7E70120C8E788
:100CEC000C05002010050020650C0A0810B5044600
:100CFC0009289CBF0A34A4B22046FFF7B5FF50B1B7
:100D0C0003212046FFF72EFA032804D12046BDE824
:100D1C001040FFF72FBA002010BD7047002370B5AC
:100D2C00202543801423084E0446038031468560F9
:100D3C000561284600F03EF831466060284600F018
:100D4C0039F8E060204670BD70100A0830B50E4DC1
:100D5C0087B02978BFF35B8F11F0010411D12846BD
:100D6C00FFF797F968B101A8FFF7D8FF214601AA50
:100D7C000648FFF7ADFB2846FFF790F9044800F052
:100D8C001BF8024807B030BD2005002024050020C8
:100D9C00270D0A08002307B51A4619460093034885
:100DAC00FFF700FC03B05DF804FB00BF3805002022
:100DBC00FFF76DB9FFF769B9002301461A461846CB
:100DCC0000F042B80A44914200F1FF3300D1704761
:100DDC0010B511F8014B914203F8014FF9D110BD38
:100DEC0003460244934200D1704703F8011BF9E714
:100DFC0038B50D4B04461D68AB6B7BB91820FFF75B
:100E0C001FFB0A4A0A4BA863C0E90023094B0122C5
:100E1C0083600B2383810023C0E904230022AB6B86
:100E2C001C615A6138BD00BF040000200E33CDABED
:100E3C0034126DE6ECDE0500034613F8012B002A94
:100E4C00FBD1181A013870472DE9F843DFF8BC8044
:100E5C000646D8F800001F460D46914600F058F89B
:100E6C00264B1C6834B9264C1C60264B13B11B68EE
:100E7C00C4F8883063681F2B07DDD8F8000000F039
:100E8C0049F84FF0FF30BDE8F8835EB3D4F8880022
:100E9C0088B91D4B23B9D8F8000000F03AF8F0E7F8
:100EAC004FF48470FFF7CCFA0028F4D00023C0E98B
:100EBC004033C4F8880001226368022E40F8239066
:100ECC0002FA03F200EB8301D0F8003143EA02038B
:100EDC00C0F80031C1F8807002BFD0F804311A4359
:100EEC00C0F804216368D8F800005A1C0233626011
:100EFC0044F8235000F00EF80020C4E7DC05002075
:100F0C0050050020000000004D040A086800002075
:100F1C0070477047704700001D000A085D000A0802
:100F2C0085000A0889000A08000000002000000063
:100F3C00000000000000000083040A08CD040A0829
:100F4C00A5040A0885040A08AD040A08B5040A08B1
:100F5C00BD040A08C5040A080000000000000000D7
:100F6C0011050A0801050A0803050A0861707000DA
:100F7C000000000000000000D9050A08E3050A087B
:100F8C00ED050A08F7050A0801060A080D060A0805
:100F9C0019060A0821060A0829060A0835060A084D
:100FAC003D060A0847060A0851060A0825592D2548
:100FBC006D2D25645425483A254D3A2553257A0044
:100FCC0061736374696D650000000000000000002F
:100FDC00C5070A082F080A080B080A08B5060A08EC
:100FEC00DB070A08F7070A08E9070A0805080A08D0
:100FFC00C7070A08CD070A0800000000000000001F
:10100C00B7080A081D090A08F5080A08B5060A08EF
:10101C00E7080A08B9080A08C9080A0817090A08DB
:10102C00D9080A08B1080A080000000000000000F6
:10103C00E70A0A08DD0A0A08D30A0A08450A0A0858
:10104C00C70A0A08BB0A0A0819060A0821060A0870
:10105C00AF0A0A08A70A0A089D0A0A08930A0A088E
:10106C004F0A0A080000000009010A08C9050A080D
:10107C00A1060A0861070A088D070A08B1070A08C1
:10108C00F10A0A08A10D0A08000000000000000087
:04109C000000000050
:0410A000000000004C
:1010A400CC0F0A0808000020000000000000000027
:1010B400000000000000000000000000000000002C
:1010C400000000000000000000000000000000001C
:1010D400000000000000000000000000000000000C
:1010E40000000000000000000000000000000000FC
:1010F40000000000000000000000000000000000EC
:0C1104000000000000000000E1050020D9
:10111000FFFFFFFF00000102030405060708090A9C
:101120000B0C0D0E0F101112131415161718191A97
:081130001B1C1D1E1F202800DE
:04113800785634129F
:04000005080A001CC9
:00000001FF
