:02000002D0002C
:1040000000400D00C06A0D00000006000C00050114
:0840100004019A080000000001
:0440180078670D00B8
:10401C0009480A49884208B505D0094A824202D0AB
:10402C00121A02F0F3FA0748074A0021121A02F09A
:10403C00FBFA014808BD00BF98E40320246A0D0078
:10404C000CE503200CE50320EDE7032070B5074ECB
:10405C00074C01F0B3FDA41BA4080025A54200D118
:10406C0070BD56F8043B98470135F7E7FC690D0025
:10407C00206A0D0000F014B808B500F073F8BDE824
:10408C00084001F053BD00F0BDBD00F0C3BD007889
:10409C00B0FA80F0400970470123037070470000AC
:1040AC0038B501F03FFE00F055FE01F0B9FC4FF4BD
:1040BC00164101F0A9FC01F0B3FC2049204D01F0A0
:1040CC000EF8204800F05BFA01F0AAFC1E4901F042
:1040DC0006F801F0A5FC04461A4800F077FA1B4AD2
:1040EC001B49002818BF1146204600F0F8FF01219B
:1040FC00072001F0D3FD00221648174C114601F0A1
:10410C0023F900226868114600F034FD48B94FF4D9
:10411C00FA7000F097FD01F083FC214600F0CCFF13
:10412C00EFE701F07DFC0D4900F0D9FF01F078FCC0
:10413C00BDE838400A4900F0D2BF00BFC4670D008B
:10414C001CE7032024E50320E0670D008C670D00BD
:10415C00AA670D005CE50320DE670D00DF670D002C
:10416C00FE670D00F0B5A1B0304B314F314C324DE4
:10417C000293324B0193324B009322463B46294625
:10418C003048314E00F0B6F9B5F900002F4D01F072
:10419C0043FF2F4B002201F0A9FF02F0E1F9306040
:1041AC00B4F900002B4C01F037FF294B002201F031
:1041BC009DFF02F0D5F92860B7F9000001F02CFF43
:1041CC000022234B01F092FF02F0CAF9224B20602F
:1041DC001978072081F00101197001F070FD1F4959
:1041EC000BA800F003FA96ED000A0BA800F03DFABC
:1041FC0095ED000A1A4D0BA800F037FA94ED000A61
:10420C000BA800F032FA174B05930FCD06AC0FC478
:10421C002B682370144B15491B6805AA0BA800F0DA
:10422C004FFA0BA800F004FA21B0F0BD40E50320D2
:10423C0038E5032036E5032034E503203EE5032072
:10424C003CE5032024E503200CE5032010E50320C6
:10425C000000103F14E503203AE503200D680D0023
:10426C0048E5032084680D0098E403205CE50320F6
:10427C0007B50021012000F041FC0E4B00221A6012
:10428C009A809A71A2F580329A60012000F026FC87
:10429C00094801F04BFA6A230093A8220123C0219C
:1042AC00064800F013FE064803B05DF804EB00F07E
:1042BC0007B900BF18E503205CE5032044E50320A3
:1042CC0024E503202DE9F74F16469B46BDF83080B8
:1042DC0007468A4600F09AFA202E33464FF0000526
:1042EC00A8BF202381462C460193B5423AD201F057
:1042FC0019FD394600F060FD01F014FD03685146CC
:10430C009B68984701F00EFD00F05EFD01F00AFD80
:10431C00394600F051FD01F005FD721B202AA8BFA3
:10432C002022D2B2394600F044FD01F0FBFC0368B8
:10433C001B69984790B1B8F1000F09D101F0F2FC5C
:10434C0003685B6998470BF80400013464B2ECE72E
:10435C0000F05CFAA0EB09004045EFD3019B1D4433
:10436C00EDB2C2E7B8F1000F09D000F04FFAA0EBA4
:10437C000900404503D3B442B8BF4FF0FF34204688
:10438C0003B0BDE8F08F07B5009313460122FFF789
:10439C0099FF03B05DF804FB37B514461D460DF1CB
:1043AC000702BDF81C30FFF7EEFF60B1012202FAE4
:1043BC0005F3611B9DF807200131013B8B40134035
:1043CC00069A0B41137003B030BDF8B5074615467D
:1043DC001C460E4601F0A6FC394600F0EDFC01F03F
:1043EC00A1FC036831469B6898472544AC4207D032
:1043FC0001F098FC036814F8011B9B689847F5E7DB
:10440C0001F090FC00F0E0FCB0FA80F04009F8BD3F
:10441C0007B58DF807200DF107030122FFF7D5FF33
:10442C0003B05DF804FB00002DE9F3411F460F4B70
:10443C00904601240DF107021B8805460E46FFF736
:10444C00A2FF04FA08F252B29DF8074057B122437A
:10445C00D2B2314628468DF80720FFF7D9FF02B0BB
:10446C00BDE8F08124EA0202F3E700BF9CE40320DC
:10447C00F7B51F46114B16461B880DF10702044673
:10448C000D46FFF780FFB8B1012202FA07F3F11BCA
:10449C009DF820200131013B8B4002FA01F19DF87F
:1044AC000720C9B222EA03020B401A4329462046D0
:1044BC008DF80720FFF7ACFF03B0F0BD9CE40320A0
:1044CC0068230370704707B502230078009104221B
:1044DC001B21FFF7CDFF03B05DF804FB07B50223EA
:1044EC000078009104221C21FFF7C2FF03B05DF895
:1044FC0004FB0000F7B51646174A1D460346044652
:10450C00128813F8010B00920F460E223B21FFF785
:10451C00D9FE6278A37843EA02233B80E2782379C0
:10452C0043EA022333806279A37943EA02232B8086
:10453C00627AA37A43EA0223089A1380E27A237BF5
:10454C0043EA0223099A1380627BA37B43EA02238A
:10455C000A9A138003B0F0BD9CE403200B4600784C
:10456C0006226B21FFF760BF07B50323007800918B
:10457C0002226B21FFF77CFF03B05DF804FB10B542
:10458C0001210446FFF7F0FF20460021FFF79BFFB7
:10459C0020460021FFF7A2FF20460021BDE8104075
:1045AC00FFF7DCBF13B50346074A0446128813F81D
:1045BC00010BCDE9003206231A467521FFF7ECFEFC
:1045CC00607802B010BD00BF9CE4032008B5FFF773
:1045DC00E9FFA0F134035842584108BD0023C0E95B
:1045EC0013330360836243607047000070B5044668
:1045FC000D4608300D4900F0F6FD04F12C060B4970
:10460C0004F1180000F0EFFD0849304600F0EBFD16
:10461C00064904F13C0000F0E6FD2046FFF7DEFF02
:10462C002946304600F0F3FD204670BDDF670D00D3
:10463C0010B50446006800F0EDFAA06A00F0EAFA42
:10464C00E06C00F0E7FA04F13C0000F081FD04F1AD
:10465C002C0000F07DFD04F1180000F079FD04F150
:10466C00080000F075FD204610BD38B5016D0446FC
:10467C000431C06C10EE105A00F0D4FAE064E8B1CA
:10468C00226DC5F307618154D4E913210A44C5F3A3
:10469C0007415170D4E913210A44C5F307219170E5
:1046AC00D4E913210A4404F13C00D570236D043382
:1046BC0023656621BDE8384000F0D2BD38BD00004E
:1046CC002DE9F04F8BB0D0F82C9000AF80464846C7
:1046DC000D46C7E9023201F0DBFF064603308008C5
:1046EC0001F08AFC3F4B002201F04AFB01F010FF65
:1046FC00D8F83CA0C6EB80068400504601F0C8FFF9
:10470C000134834604440130800801F075FC354BBC
:10471C00002201F035FB01F0FBFECBF1030303EBB0
:10472C00800BD8F850303B605C441C44E21D22F0F6
:10473C000702ADEB020D00212246684601F074FF22
:10474C00484601F0A5FF49460246684601F05EFF67
:10475C00484601F09DFF0DEB06022C2111544846F2
:10476C0001F096FF7860504601F092FF79680131B4
:10477C00024688196844514601F048FF484601F04A
:10478C0087FF8146504601F083FF484401303B6867
:10479C00D8F84C10304458441A46684401F036FF9F
:1047AC002B68FE68D3F838800F4B3B6104360FCE74
:1047BC0007F1140CACE80F0033688CF800303A8920
:1047CC0007F110012846C0472B6822466946DB6872
:1047DC00284698472B6828461B6C98472C37BD46B3
:1047EC00BDE8F08F0000E03F84680D0008B5024B77
:1047FC001B685B6C019308BD4802030008B5024BB3
:10480C001B685B68019308BD1802030008B5024BD6
:10481C001B685B69019308BD1802030008B5024BC5
:10482C001B689B68019308BD2C02030008B5024B62
:10483C001B68DB68019308BD2C02030008B5024B12
:10484C001B681B69019308BD2C02030008B5024BC1
:10485C001B68DB68019308BD2802030008B5024BF6
:10486C001B689B69019308BD2802030008B5024B25
:10487C001B68DB69019308BD2802030008B5024BD5
:10488C001B681B6A019308BD2802030008B5024B84
:10489C001B685B6A019308BD2802030008B5024B34
:1048AC001B689B6A019308BD2802030008B5024BE4
:1048BC001B68DB6A019308BD2802030008B5024B94
:1048CC001B681B6B019308BD2802030008B5024B43
:1048DC001B685B6B019308BD2802030008B5024BF3
:1048EC001B681B6C019308BD2802030008B5024B22
:1048FC001B681B6D019308BD2802030008B5024B11
:10490C001B685B69019308BD6C02030008B5024B80
:10491C001B685B69019308BD6402030008B5024B78
:10492C001B681B6A019308BD6402030008B5024BA7
:10493C001B685B6A019308BD6402030008B5024B57
:10494C001B689B6A019308BD6402030008B5024B07
:10495C001B689B68019308BD6802030008B5024BF5
:10496C001B68DB68019308BD6802030008B5024BA5
:10497C001B685B68019308BD3802030008B5024B45
:10498C001B689B69019308BD3802030008B5024BF4
:10499C001B68DB69019308BD3802030008B5024BA4
:1049AC001B68DB6A019308BD3802030008B5024B93
:1049BC001B685B6B019308BD3802030008B5024B02
:1049CC001B689B6B019308BD3802030008B5024BB2
:1049DC001B68DB69019308BD3002030008B5024B6C
:1049EC001B681B6A019308BD3002030008B5024B1B
:1049FC001B681B68019308BD3C02030008B5024B01
:104A0C001B68DB68019308BD3C02030008B5024B30
:104A1C001B681B69019308BD3C02030008B5024BDF
:104A2C001B685B69019308BD3C02030008B5024B8F
:104A3C001B689B69019308BD3C02030008B5024B3F
:104A4C001B68DB69019308BD3C02030008B5024BEF
:104A5C001B681B6A019308BD3C02030008B5024B9E
:104A6C001B689B6A019308BD3C02030008B5024B0E
:104A7C001B681B68019308BD4C02030008B5024B70
:104A8C001B685B68019308BD4C02030008B5024B20
:104A9C001B681B69019308BD4C02030008B5024B4F
:104AAC001B685B69019308BD4C02030008B5024BFF
:104ABC001B689B69019308BD4C02030008B5024BAF
:104ACC001B68DB69019308BD4C02030008B5024B5F
:104ADC001B681B6A019308BD4C02030008B5024B0E
:104AEC001B685B68019308BD2002030008B5024BEC
:104AFC001B685B69019308BD2002030008B5024BDB
:104B0C001B68DB6A019308BD2002030008B5034B48
:104B1C001B68D3F88830019308BD00002002030005
:104B2C0008B5034B1B68D3F89430019308BD000003
:104B3C002002030008B5024B1B68DB6B019308BD18
:104B4C004402030008B5024B1B685B68019308BD67
:104B5C004002030008B5024B1B689B68019308BD1B
:104B6C004002030008B5024B1B68DB68019308BDCB
:104B7C004002030008B5024B1B681B69019308BD7A
:104B8C004002030008B5024B1B685B69019308BD2A
:104B9C004002030008B5024B1B689B69019308BDDA
:104BAC004002030008B5024B1B68DB69019308BD8A
:104BBC004002030008B5024B1B681B6A019308BD39
:104BCC004002030008B5024B1B681B6B019308BD28
:104BDC004002030008B5024B1B685B6B019308BDD8
:104BEC004002030008B5024B1B681B6C019308BD07
:104BFC004002030008B5024B1B685B6C019308BDB7
:104C0C004002030008B5024B1B681B68019308BDEA
:104C1C001C02030008B5024B1B685B68019308BDBE
:104C2C001C02030008B5024B1B689B68019308BD6E
:104C3C001C02030008B5024B1B685B6C019308BD9A
:104C4C001C0203000021FFF751BF000002480023A3
:104C5C000360FFF7CBBD00BFA8E50320002240682E
:104C6C001146FFF7A7BF002240681146FFF7B2BFFD
:104C7C0040680022FFF7A6BF4068002281F00101C6
:104C8C00FFF790BF002340681A461946FFF782BF12
:104C9C00002340681A461946FFF774BF002240688B
:104CAC001146FFF767BF002240681146FFF752BF5D
:104CBC00406800220221FFF755BF002340681A46C6
:104CCC00FFF740BF024B03225A60024A1A6070473A
:104CDC00ACE5032020680D007047F8B50646154674
:104CEC000C468F18BC4206D0336814F8011B9B6825
:104CFC0030469847F6E72846F8BD007C0022FFF7BF
:104D0C00BDBD007C0021FFF7C1BD007C0021FFF779
:104D1C00C5BD007C0021FFF7C9BD007C0021FFF759
:104D2C00CDBD10B51421044601F020F8204610BD6D
:104D3C0010B54FF47A73044608460021C4E90113F8
:104D4C00034B236020741146FFF7C8FD204610BDAD
:104D5C005C680D000023007C1A461946FFF776BDEF
:104D6C007FB500221423CDE90122ADF804300B7875
:104D7C008DF808304B680393CB680493007C0B7A56
:104D8C00059301A9FFF7B2FD07B05DF804FB1FB551
:104D9C00003B8DF800104FF06401039118BF012304
:104DAC00694601928DF80830FFF7DAFF05B05DF81F
:104DBC0004FB0123FFF7EBBF007C0022FFF74EBD85
:104DCC00007C0022FFF752BD0121FFF7F9BF7047AD
:104DDC0010B51821044600F0C9FF204610BDF0B5EF
:104DEC00037D062B8DB00E4600F104074FF0000436
:104DFC0012D000F1080515F8011D0A22304600F00A
:104E0C0078F9AF42044419D0002CF4D02E2130464E
:104E1C0000F056F90444EEE72F236A4639460A207F
:104E2C008DF80040FFF772FD684601F031FC3368E5
:104E3C000246DB68694630469847044620460DB06A
:104E4C00F0BD000010B5054B0446112240F8043BA0
:104E5C00002101F0E9FB204610BD00BF84680D0065
:104E6C000346074A10B543F8042B01F1100251F820
:104E7C00044B43F8044B9142F9D10A781A7010BDD7
:104E8C0084680D00037D042B04D14068003818BFE2
:104E9C0001207047062B07D143683BB983682BB9B7
:104EAC00C3681BB90069F1E7002070470120704707
:104EBC0010B59DF8084044EA032343EA024242EA53
:104ECC00016104234160037510BD000037B5044D2A
:104EDC0005609DF818500095FFF7EAFF03B030BD50
:104EEC0084680D0013B5CB7800938B784A780978D9
:104EFC00FFF7DEFF02B010BD014B024A1A6070478B
:104F0C00B4E5032090680D00002340681A46FFF7B3
:104F1C0019BE406800220221FFF724BE002240681F
:104F2C001146FFF717BE002240681146FFF722BE5C
:104F3C00002340681A461946FFF724BE0023406838
:104F4C001A461946FFF726BE40680021FFF74ABEF5
:104F5C0040680021FFF74EBE4068002281F001013D
:104F6C00FFF720BE40680022FFF72CBE00224068ED
:104F7C001146FFF72FBE002240681146FFF71ABEFC
:104F8C002DE9F043002495B016460D460746FFF771
:104F9C0059FF214618220EA8009401F045FB40232E
:104FAC00CDE90C3421466B460CAA3046FFF7D6FCF3
:104FBC000446002846D1024601216868FFF7DAFD55
:104FCC000221804622466868FFF7D4FD009E814688
:104FDC002146002E36D0002934D17368022B03D021
:104FEC000A2B0BD0F669F4E7B8F1000F04D0716905
:104FFC0038460431FFF776FF4146F3E7B9F1000F6D
:10500C0001D14946EEE77469102201A801F00CFBAE
:10501C0006238DF8143001AD04F108031834186818
:10502C0059682A4603C20833A3421546F7D101A991
:10503C0006A807ADFFF714FF0FCD3C1D0FC42B685E
:10504C002370DEE70098FFF781FC384615B0BDE809
:10505C00F0830000024B034A1A6000225A6070472A
:10506C00B8E503209C680D00F8B506460D468F1870
:10507C000024BD420CD0336815F8011B9B683046E8
:10508C009847031E01DB1C44F3E7002C08BF1C46A9
:10509C002046F8BD13B50446084659B1019101F0FC
:1050AC00F7FA23680199DB680246204602B0BDE896
:1050BC001040184702B010BD08B5FFF7EBFF08BD54
:1050CC0003689B68184738B50D210546FFF7F8FFB4
:1050DC000A2104462846FFF7F3FF204438BD38B5B3
:1050EC000546FFF7D7FF04462846FFF7ECFF2044A0
:1050FC0038BD30B58BB000238DF82430012A98BF11
:10510C000A2209AC0D46B1FBF2F101FB125303F07C
:10511C00FF03092B94BF30333733DBB2AA4204F8B8
:10512C00013DEFD92146FFF7B5FF0BB030BD0000B4
:10513C00014B00229A607047C0E5032010B504466D
:10514C0008462170FFF742FC00236360204610BD27
:10515C0010B504460068FFF75DFD204610BD10B584
:10516C000446006808B1FFF755FD0023C4E901337C
:10517C00236010BD38B504460D4600680131FFF7B9
:10518C0051FD10B1C4E90005012038BD10B503680C
:10519C00044623B143688B4201D3012010BD204645
:1051AC00FFF7E8FF0028F9D0A368002BF5D122689F
:1051BC001370F2E737B50D46114601920446FFF71E
:1051CC00E5FF019A28B92046FFF7C9FF204603B036
:1051DC0030BDA2602946206801F018FA2268A36845
:1051EC000021D154F2E7002313B5C0E90033044683
:1051FC008360037341B10846019101F049FA0199AA
:10520C0002462046FFF7D6FF204602B010BD13B56C
:10521C00044659B10846019101F03AFA0199024647
:10522C002046FFF7C7FF204602B010BDFFF797FFDF
:10523C00F9E770B505460E4609B9002070BD6AB194
:10524C00846814442146FFF7A1FF0028F5D0286894
:10525C00AB683146184401F013FAAC600120EDE75D
:10526C0007B500238DF80410012201A98DF8053033
:10527C00FFF7DFFF03B05DF804FB0000054B0222D3
:10528C001A60054B054A9A60002018609880987146
:10529C00FFF724BCDCE50320D0E503200000FFFF72
:1052AC00024B1A68024B1A60704700BFA0E403203F
:1052BC00E0E5032010B40468246BA4465DF8044BAD
:1052CC00604703689B6C1847808E7047028FC08EB6
:1052DC00101A704707B503688DF80710DB680122B8
:1052EC000DF10701984703B05DF804FB10B5036896
:1052FC001B690446984728B1E38EE26B591CE18682
:10530C00D05C10BD4FF0FF30FBE710B503681B6994
:10531C000446984718B1E38EE26BD05C10BD4FF099
:10532C00FF30FBE7704710B403460846DC6BD98EA0
:10533C001A8F0368521ADB6821445DF8044B184736
:10534C00A0F11000FFF7EFBF70B503688CB05B6A7B
:10535C0004460E461546984701231C22002105A839
:10536C00029301F061F940F61C233046ADF814307D
:10537C00FFF7E4FA1122ADF8160002210A20FFF71C
:10538C001DFB0028606125DB0422009202AB40F675
:10539C00FF71FFF7F3FAE8B995B10390ADF810007F
:1053AC0003A9E8B2FFF7AAFAA0B906230093606933
:1053BC0003AB41F20B0240F6FF71FFF7DFFA48B97D
:1053CC0060691C2205A9FFF7D1FA18B965640120A0
:1053DC000CB070BD236820465B6A98470020F7E745
:1053EC0010B504464069002801DBFFF7CFFA4FF0F7
:1053FC00FF3363610023E386238710BD70B5054638
:10540C00C06BEE8E68B12B6C9C1B944228BF14466B
:10541C002246304401F0FAF8EB8E2344EB8620460A
:10542C0070BD0446F1E7D0B503681B6904460F460E
:10543C001646984790B1236820461B699847E38E1F
:10544C00E16B8642A8BF064619443246384601F045
:10545C00DDF8E38E3344E3863046D0BD4FF0FF36A3
:10546C00FAE7000070B50446054B44F8043B01F123
:10547C00200506460FCD0FC42B682370304670BD37
:10548C0084680D00F0B59646026889B0976A0A4A9E
:10549C0002921C1D8C4606460FCC03AD0FC523682B
:1054AC002B70BDF838300093724602AB6146304623
:1054BC00B84709B0F0BD00BF84680D00F0B50368B3
:1054CC0089B09F6A0C4B029300F1200604460FCE64
:1054DC0003AD0FC533682B70A38EE28EE16B009386
:1054EC00204602ABB84723680546DB69204698473F
:1054FC00284609B0F0BD00BF84680D00F0B54378B4
:10550C00022B8DB005460C46174604D1011D2046D2
:10551C00FFF7E8FC22E00A2B25D11122002101A87B
:10552C0001F082F8AB6803B305F1080301AE05F195
:10553C00180C18685968324603C20833634516467E
:10554C00F7D1062301A906A807AE8DF81430FFF792
:10555C0087FC0FCE04340FC4336823701FB16888E6
:10556C00FFF7E4F938800DB0F0BDEB68002BDBD110
:10557C004FF6FF702E69FFF7D1F98642D4D105F1B1
:10558C001401C4E72DE9F04117468EB000220646FF
:10559C0001AB084611460192FFF7E0F9041E20DB2F
:1055AC00019B2BB35B691BB302A8FFF74BFC019B60
:1055BC000022586902A9FFF7A1FF02A8FFF762FCBD
:1055CC00B0B1336803ADD3F838800B4B08930FCDD3
:1055DC0009AC0FC42B6823703A4608A93046C04763
:1055EC0004460198FFF7B2F920460EB0BDE8F081F1
:1055FC004FF0FF34F5E700BF84680D002DE9F0474C
:10560C00D0F81490B9F1000F90B005460E469046B4
:10561C001C463CDB00293AD04FF01C0A09AF52461D
:10562C000021384601F000F8CDF80CA0DCB10022C6
:10563C004FF47A70B4FBF0F3CDE9043200FB134362
:10564C005843102307920690009341F206026B44D4
:10565C0040F6FF714846FFF791F9044620B1204609
:10566C0010B0BDE8F087082403ABCDE9007368697E
:10567C00234642463146FFF791F9041EEFDB05F154
:10568C00340205F11C013846FFF738FFE7E74FF00D
:10569C00FF34E4E738B5054614462B7D062B084647
:1056AC0010D140F61C231380FFF748F908342B1D4A
:1056BC0024F8060C143553F8042B44F8042BAB4295
:1056CC00F9D138BD042BFCD14FF404731380FFF7D0
:1056DC0035F960806868FFF721F96060F1E72DE922
:1056EC00F0438BB003AF4FF01C09984604460D46AF
:1056FC00164600214A46384600F096FFBDF8481081
:10570C003A464046FFF7C6FF9DF80D3053B1CDE940
:10571C0000796069002332462946FFF747F90BB040
:10572C00BDE8F0834FF0FF30F9E7000038B50025F5
:10573C004FF47A73C0E901530B4B03F108026C333D
:10574C0003614FF0FF330446026043611C30FFF7E6
:10575C0079FB4FF40073C4E91035E5862587E563C2
:10576C0084F84850204638BDEC680D0010B590F810
:10577C004830044623B1C06B10B1012100F0F6FA99
:10578C000023E36384F848302364E386238710BD49
:10579C0070B5044616460D46FFF7E8FF0023E66396
:1057AC0023642EB12564206C003818BF012070BD15
:1057BC00002DF8D02846FEF766FC0123E06384F840
:1057CC0048300028EFD0EDE7F8B51746C26B054618
:1057DC000C461AB9016C09B1FFF7DAFF04340FCC8F
:1057EC0005F120060FC6236833700023286CAF86A2
:1057FC00EB862B87F8BD37B5C26B04460B462AB92E
:10580C00016C19B10193FFF7C3FF019BE16B0022FF
:10581C00E286228741B1226C32B12068056B2046AA
:10582C00A8470028C8BF208723681B69204603B0FF
:10583C00BDE830401847000010B5074B03F10802D3
:10584C006C33044602600361FFF7CAFD2046FFF784
:10585C008DFF204610BD00BFEC680D0010B504464E
:10586C00FFF7EAFF20464C2100F080FA204610BDDD
:10587C00704741747047704708B5007CFFF7EEF82D
:10588C0020EAE07008BD08B5007CFFF7BFF820EAFD
:10589C00E07008BD08B5007CFFF7C8F840EAE0707E
:1058AC0008BD08B5007CFFF7B9F840EAE07008BD08
:1058BC00007CFFF7C3B837B5457C04462DB1207C7E
:1058CC0003B0BDE83040FFF799B8007C0191FFF7B9
:1058DC00C5F800280199F2DC284603B030BD10B59C
:1058EC001421044600F042FA204610BD10B54FF0CA
:1058FC00000C0446084611464FF47A72C4E901C202
:10590C00044A22600122207462741A46FFF76EF872
:10591C00204610BD64690D0013B50D4C2178BFF302
:10592C005B8F11F0010110D120460191FEF7AFFB06
:10593C00019950B1074B084A0848FFF7D7FF20469A
:10594C00FEF7AAFB064800F05BFE044802B010BD4F
:10595C00E4E503206CE60320E8E50320F0E60320F1
:10596C0083580D00417470477047704708B500218B
:10597C00007CFFF79BF840EAE07008BD08B50121F8
:10598C00007CFFF793F840EAE07008BD08B5007C96
:10599C00FFF784F820EAE07008BD08B5007CFFF73B
:1059AC0075F820EAE07008BD13B50446007C01913F
:1059BC00FFF774F80028019901DC607C20B1207C91
:1059CC00FFF77CF820EAE07002B010BD007CFFF716
:1059DC007DB810B51421044600F0C8F9204610BD5E
:1059EC0010B54FF47A73044608460021C4E901133C
:1059FC00044B23600123207463741146FFF736F8BF
:105A0C00204610BD94690D00007C0022FFF736B8CB
:105A1C0010B514220446002100F006FE204610BDED
:105A2C0010B50F4C88B003A8FFF7F2FF2178BFF335
:105A3C005B8F11F001010FD120460191FEF727FB7E
:105A4C00019948B103AA0748FFF7CAFF2046FEF7A1
:105A5C0023FB054800F0D4FD024808B010BD00BF80
:105A6C0004E7032008E7032075590D000022406865
:105A7C001146FFF77FB8002240681146FFF79AB82D
:105A8C00002240681146FFF7A5B840680022FFF7D6
:105A9C0099B84068002281F00101FFF783B8002318
:105AAC0040681A461946FFF775B8002340681A4635
:105ABC001946FFF767B8002240681146FFF74AB84D
:105ACC00406800220221FFF74DB8002340681A46B7
:105ADC00FFF738B8024B04225A60024A1A6070472A
:105AEC001CE70320C4690D00014B1860704700BF10
:105AFC00A4E4032008B50B4B43B1FFF791FF0368F7
:105B0C001B699847002801DDAFF30080064B43B1B9
:105B1C00FFF702FF03681B699847002801DDAFF30C
:105B2C00008008BD000000000000000008B5FFF771
:105B3C00E1FFFEF76BFE014B186008BD38E7032050
:105B4C000548064A064908B5121A00F05FFD054BD8
:105B5C00054A1A6008BD00BF00F4032004F40320BA
:105B6C00206A0D0000F403201E1C279A07B50023A1
:105B7C0000931A466FF07701FEF7D2FF03B05DF881
:105B8C0004FB000007B543880A2B08D0502B0BD11F
:105B9C00094B1B684BB103B05DF804EB1847FFF7DA
:105BAC00E5FF03B05DF804FB002300931A466FF089
:105BBC007701FEF7B5FFF4E728E7032010B512488C
:105BCC000021FFF737F8114B1A68114B9A42114B11
:105BDC000CBF012200221A7001D0FFF7B1FFFEF7B3
:105BEC000DFE044600F028FD0B4B13B12046AFF31D
:105BFC00008000210848FEF79DFFBDE810400748D3
:105C0C000021FEF783BF00BFF55A0D0000F40320FE
:105C1C001E1C279A24E7032000000000915B0D0056
:105C2C00232813B502D9002002B010BDA0F10B033C
:105C3C00022B1AD8174C2178BFF35B8F11F001019E
:105C4C000BD120460191FEF722FA019928B1124896
:105C5C00FFF774FA2046FEF71FFA0F4B1878FEF781
:105C6C00BDFE0028DFD10120DEE7012809D800F0B5
:105C7C0059F80021007CFEF729FE80F00100C0B22B
:105C8C00D2E709380128EED8FFF746FE007CFEF774
:105C9C00DDFEF2E72CE7032030E70320232838B59C
:105CAC0004460D460AD8FF2908D0FFF7B9FF28B1E2
:105CBC0029462046BDE83840FEF7B0BD38BD38B5A2
:105CCC0004460D46FEF7B2FDFF2810D0062804D876
:105CDC004D2323FA00F0C30709D42046FFF7A0FF99
:105CEC0028B129462046BDE83840FEF7A7BD38BD8F
:105CFC007047000038B50023202543801423044648
:105D0C000380856005610649284600F031F8044996
:105D1C006060284600F02CF8E060204638BD00BFDB
:105D2C00F8690D0030B50E4D2978BFF35B8F11F07B
:105D3C00010487B011D12846FEF7A9F968B101A872
:105D4C00FFF7D8FF01AA21460648FEF7F1FF2846C7
:105D5C00FEF7A2F9044800F053FC024807B030BD2E
:105D6C003CE7032040E70320FD5C0D00FEF78DB9F6
:105D7C00FEF789B981F0004102E000BF83F00043D7
:105D8C0030B54FEA41044FEA430594EA050F08BFCA
:105D9C0090EA020F1FBF54EA000C55EA020C7FEA8E
:105DAC00645C7FEA655C00F0E2804FEA5454D4EB0B
:105DBC005555B8BF6D420CDD2C4480EA020281EAD5
:105DCC00030382EA000083EA010180EA020281EA0D
:105DDC000303362D88BF30BD11F0004F4FEA01315F
:105DEC004FF4801C4CEA113102D0404261EB41016E
:105DFC0013F0004F4FEA03334CEA133302D05242F4
:105E0C0063EB430394EA050F00F0A780A4F10104AF
:105E1C00D5F1200E0DDB02FA0EFC22FA05F28018E9
:105E2C0041F1000103FA0EF2801843FA05F35941CF
:105E3C000EE0A5F120050EF1200E012A03FA0EFC4E
:105E4C0028BF4CF0020C43FA05F3C01851EBE37178
:105E5C0001F0004507D54FF0000EDCF1000C7EEB95
:105E6C0000006EEB0101B1F5801F1BD3B1F5001FD3
:105E7C000CD349085FEA30004FEA3C0C04F10104F2
:105E8C004FEA445212F5800F80F09A80BCF1004F1B
:105E9C0008BF5FEA500C50F1000041EB045141EA9D
:105EAC00050130BD5FEA4C0C404141EB0101013C66
:105EBC0028BFB1F5801FE9D291F0000F04BF014655
:105ECC000020B1FA81F308BF2033A3F10B03B3F127
:105EDC0020020CDA0C3208DD02F1140CC2F10C02B7
:105EEC0001FA0CF021FA02F10CE002F11402D8BF15
:105EFC00C2F1200C01FA02F120FA0CFCDCBF41EAE1
:105F0C000C019040E41AA2BF01EB0451294330BDAF
:105F1C006FEA04041F3C1CDA0C340EDC04F114048C
:105F2C00C4F1200220FA04F001FA02F340EA030063
:105F3C0021FA04F345EA030130BDC4F10C04C4F1A9
:105F4C00200220FA02F001FA04F340EA0300294689
:105F5C0030BD21FA04F0294630BD94F0000F83F4D3
:105F6C00801306BF81F480110134013D4EE77FEAB6
:105F7C00645C18BF7FEA655C29D094EA050F08BF02
:105F8C0090EA020F05D054EA000C04BF19461046E3
:105F9C0030BD91EA030F1EBF0021002030BD5FEA27
:105FAC00545C05D14000494128BF41F0004130BD4F
:105FBC0014F580043CBF01F5801130BD01F00045A3
:105FCC0045F0FE4141F470014FF0000030BD7FEA16
:105FDC00645C1ABF194610467FEA655C1CBF0B4611
:105FEC00024650EA013406BF52EA033591EA030F28
:105FFC0041F4002130BD00BF90F0000F04BF002120
:10600C00704730B54FF4806404F132044FF0000552
:10601C004FF0000150E700BF90F0000F04BF0021CB
:10602C00704730B54FF4806404F1320410F0004531
:10603C0048BF40424FF000013EE700BF42004FEA2C
:10604C00E2014FEA31014FEA02701FBF12F07F43A9
:10605C0093F07F4F81F06051704732F07F4208BF60
:10606C00704793F07F4F04BF41F40021704730B567
:10607C004FF4607401F0004521F000411CE700BFB3
:10608C0050EA010208BF704730B54FF000050AE036
:10609C0050EA010208BF704730B511F0004502D537
:1060AC00404261EB41014FF4806404F132045FEA39
:1060BC00915C3FF4D8AE4FF003025FEADC0C18BFE2
:1060CC0003325FEADC0C18BF033202EBDC02C2F1D4
:1060DC00200300FA03FC20FA02F001FA03FE40EA66
:1060EC000E0021FA02F11444BDE600BF70B54FF06A
:1060FC00FF0C4CF4E06C1CEA11541DBF1CEA135548
:10610C0094EA0C0F95EA0C0F00F0DEF82C4481EAAF
:10611C00030621EA4C5123EA4C5350EA013518BFCF
:10612C0052EA033541F4801143F4801338D0A0FBBC
:10613C0002CE4FF00005E1FB02E506F00042E0FB69
:10614C0003E54FF00006E1FB03569CF0000F18BF6F
:10615C004EF0010EA4F1FF04B6F5007F64F5407417
:10616C0004D25FEA4E0E6D4146EB060642EAC621AA
:10617C0041EA55514FEAC52040EA5E504FEACE2E17
:10618C00B4F1FD0C88BFBCF5E06F1ED8BEF1004F1A
:10619C0008BF5FEA500E50F1000041EB045170BD96
:1061AC0006F0004646EA010140EA020081EA0301DA
:1061BC00B4EB5C04C2BFD4EB0C0541EA045170BDD6
:1061CC0041F480114FF0000E013C00F3AB8014F150
:1061DC00360FDEBF002001F0004170BDC4F1000499
:1061EC00203C35DA0C341BDC04F11404C4F120051A
:1061FC0000FA05F320FA04F001FA05F240EA020075
:10620C0001F0004221F0004110EBD37021FA04F6AA
:10621C0042EB06015EEA430E08BF20EAD37070BD64
:10622C00C4F10C04C4F1200500FA04F320FA05F0C3
:10623C0001FA04F240EA020001F0004110EBD370C5
:10624C0041F100015EEA430E08BF20EAD37070BD35
:10625C00C4F1200500FA05F24EEA020E20FA04F30E
:10626C0001FA05F243EA020321FA04F001F00041BD
:10627C0021FA04F220EA020000EBD3705EEA430E2E
:10628C0008BF20EAD37070BD94F0000F0FD101F05D
:10629C000046400041EB010111F4801F08BF013C96
:1062AC00F7D041EA060195F0000F18BF704703F0D4
:1062BC000046520043EB030313F4801F08BF013D5B
:1062CC00F7D043EA0603704794EA0C0F0CEA135517
:1062DC0018BF95EA0C0F0CD050EA410618BF52EAD1
:1062EC004306D1D181EA030101F000414FF00000D7
:1062FC0070BD50EA410606BF1046194652EA4306E5
:10630C0019D094EA0C0F02D150EA013613D195EA58
:10631C000C0F05D152EA03361CBF104619460AD1A0
:10632C0081EA030101F0004141F0FE4141F47001AA
:10633C004FF0000070BD41F0FE4141F4780170BD9A
:10634C0070B54FF0FF0C4CF4E06C1CEA11541DBFFF
:10635C001CEA135594EA0C0F95EA0C0F00F0A7F801
:10636C00A4EB050481EA030E52EA03354FEA01312E
:10637C0000F088804FEA03334FF0805545EA131341
:10638C0043EA12634FEA022245EA111545EA106509
:10639C004FEA00260EF000419D4208BF964244F1A0
:1063AC00FD0404F5407402D25B084FEA3202B61ABF
:1063BC0065EB03055B084FEA32024FF480104FF493
:1063CC00002CB6EB020E75EB030E22BFB61A754607
:1063DC0040EA0C005B084FEA3202B6EB020E75EB9A
:1063EC00030E22BFB61A754640EA5C005B084FEA02
:1063FC003202B6EB020E75EB030E22BFB61A7546CF
:10640C0040EA9C005B084FEA3202B6EB020E75EBD9
:10641C00030E22BFB61A754640EADC0055EA060E9A
:10642C0018D04FEA051545EA16754FEA06164FEADD
:10643C00C30343EA52734FEAC2025FEA1C1CC0D189
:10644C0011F4801F0BD141EA00014FF000004FF016
:10645C00004CB6E711F4801F04BF01430020B4F1D7
:10646C00FD0C88BFBCF5E06F3FF6AFAEB5EB030C8F
:10647C0004BFB6EB020C5FEA500C50F1000041EB8C
:10648C00045170BD0EF0004E4EEA113114EB5C0459
:10649C00C2BFD4EB0C0541EA045170BD41F480112C
:1064AC004FF0000E013C90E645EA060E8DE60CEA34
:1064BC00135594EA0C0F08BF95EA0C0F3FF43BAF51
:1064CC0094EA0C0F0AD150EA01347FF434AF95EA08
:1064DC000C0F7FF425AF104619462CE795EA0C0FEC
:1064EC0006D152EA03353FF4FDAE1046194622E7B9
:1064FC0050EA410618BF52EA43067FF4C5AE50EA93
:10650C0041047FF40DAF52EA43057FF4EBAE12E782
:10651C004FEA410212F5001215D211D56FF47873BF
:10652C00B3EB625212D94FEAC12343F0004343EA62
:10653C00505311F0004F23FA02F018BF404270473D
:10654C004FF00000704750EA013005D111F00040C7
:10655C0008BF6FF0004070474FF00000704700BF5D
:10656C004FEA4102B2F1E04324BFB3F5001CDCF169
:10657C00FE5C0DD901F0004C4FEAC0024CEA5070A1
:10658C00B2F1004F40EB830008BF20F001007047D0
:10659C0011F0804F21D113F13872BCBF01F00040D3
:1065AC00704741F480114FEA5252C2F11802C2F105
:1065BC00200C10FA0CF320FA02F018BF40F0010086
:1065CC004FEAC1234FEAD32303FA0CFC40EA0C0038
:1065DC0023FA02F34FEA4303CCE77FEA625307D175
:1065EC0050EA01331EBF4FF0FE4040F440007047AC
:1065FC0001F0004040F0FE4040F40000704700BF46
:10660C00002301461A46184600F04AB80A44914243
:10661C0000F1FF3300D1704710B511F8014B03F8AE
:10662C00014F9142F9D110BD02440346934200D16F
:10663C00704703F8011BF9E738B50D4B1D68AB6BC0
:10664C0004467BB91820FEF7DDFA0A4A0A4BA86308
:10665C00C0E90023094B83600B23838101220023B3
:10666C00C0E90423AB6B00221C615A6138BD00BF2A
:10667C00A4E403200E33CDAB34126DE6ECDE050042
:10668C00034611F8012B03F8012B002AF9D17047AE
:10669C00034613F8012B002AFBD1181A0138704756
:1066AC002DE9F843DFF8B8800646D8F800001F46FD
:1066BC000D46914600F056F8254B1C6834B9254C14
:1066CC001C60254B13B11B68C4F8883063681F2B02
:1066DC0007DDD8F8000000F047F84FF0FF30BDE8B8
:1066EC00F8834EB3D4F8880088B91C4B23B9D8F87A
:1066FC00000000F038F8F0E74FF48470FEF782FAEF
:10670C000028F4D00023C0E94033C4F88800636843
:10671C0040F8239001229A4000EB8301D0F800311D
:10672C001343022EC0F80031C1F8807002BFD0F8BC
:10673C0004311A43C0F804216368D8F800005A1CCD
:10674C000233626044F8235000F00EF80020C6E7D4
:10675C00E0E7032054E7032000000000114C0D007B
:10676C0008E5032070477047704700001D400D007E
:10677C0059400D0081400D0085400D0000000000C7
:10678C004D50553630353020636F6E6E65637469CD
:10679C006F6E207375636365737366756C004D5013
:1067AC00553630353020636F6E6E656374696F6E6D
:1067BC00206661696C656400496E697469616C6915
:1067CC007A696E6720493243206465766963657324
:1067DC002E2E2E0054657374696E6720646576697D
:1067EC00636520636F6E6E656374696F6E732E2EB6
:1067FC002E005769466920636F6E6E65637465641D
:10680C00002F6D6178696D650000000000000000CC
:10681C0000000000C74C0D00BD4C0D00B34C0D002A
:10682C00A94C0D009D4C0D00914C0D00554F0D00C9
:10683C005D4F0D00854C0D007D4C0D00734C0D0013
:10684C00694C0D008D4F0D00000000000000000091
:10685C00E54C0D002F4D0D00074D0D00E74C0D00C4
:10686C000F4D0D00174D0D001F4D0D00274D0D0048
:10687C000000000000000000EB4D0D00DB4D0D0092
:10688C00DD4D0D0061707000000000000000000084
:10689C00154F0D001F4F0D00294F0D00334F0D00EC
:1068AC003D4F0D00494F0D00554F0D005D4F0D0034
:1068BC00654F0D00714F0D00794F0D00834F0D008A
:1068CC008D4F0D0025592D256D2D25645425483AE5
:1068DC00254D3A2553257A0061736374696D650003
:1068EC00000000000000000045580D0069580D0024
:1068FC00E1520D0009540D00D9520D00F9520D0052
:10690C0017530D0031530D0055530D00ED530D0071
:10691C00EB560D0091540D0009560D00C1520D009F
:10692C00D5570D0091550D00C9540D0003580D009D
:10693C0033540D00CF520D0071540D00D5520D0083
:10694C0033530D00F0FFFFFF000000004D530D000E
:10695C0000000000000000007D580D00EB580D00F9
:10696C00C3580D0075500D0093580D00AF580D0015
:10697C00A1580D00BD580D007F580D0085580D0015
:10698C00000000000000000077590D00DF590D00D9
:10699C00B5590D0075500D00A7590D0079590D0012
:1069AC0089590D00D9590D0099590D0071590D00D7
:1069BC000000000000000000D75A0D00CD5A0D0059
:1069CC00C35A0D00795A0D00B75A0D00AB5A0D0081
:1069DC00554F0D005D4F0D009F5A0D00975A0D003D
:1069EC008D5A0D00835A0D008D4F0D0000000000D4
:1069FC007D420D00594C0D00D14C0D00054F0D0082
:106A0C0061500D003D510D0089520D00AD520D002D
:046A1C00E15A0D002E
:046A20000000000072
:106A2400D2040000E8030000E4680D00A8E4032099
:106A34000000000000000000000000000000000052
:106A44000000000000000000000000000000000042
:106A54000000000000000000000000000000000032
:106A64000000000000000000000000000000000022
:106A74000000000000000000000000000000000012
:106A84000000000000000000000000000000000002
:046A9400E5E703200F
:106A9800FFFFFFFF00000102030405060708090ABB
:106AA8000B0C0D0E0F101112131415161718191AB6
:086AB8001B1C1D1E1F202800FD
:046AC00078563412BE
:04000003D000401CCD
:00000001FF
